{
  "_format": "hh-sol-artifact-1",
  "contractName": "ContractsHandler",
  "sourceName": "contracts/ContractsHandler.sol",
  "abi": [
    {
      "constant": true,
      "inputs": [
        {
          "name": "addr",
          "type": "address"
        }
      ],
      "name": "isPlayer",
      "outputs": [
        {
          "name": "",
          "type": "bool"
        }
      ],
      "payable": false,
      "stateMutability": "view",
      "type": "function"
    },
    {
      "constant": true,
      "inputs": [
        {
          "name": "",
          "type": "uint256"
        }
      ],
      "name": "games",
      "outputs": [
        {
          "name": "gameContract",
          "type": "address"
        },
        {
          "name": "name",
          "type": "string"
        },
        {
          "name": "p1Address",
          "type": "address"
        },
        {
          "name": "p2Address",
          "type": "address"
        },
        {
          "name": "stake",
          "type": "uint256"
        }
      ],
      "payable": false,
      "stateMutability": "view",
      "type": "function"
    },
    {
      "constant": true,
      "inputs": [],
      "name": "gamesLen",
      "outputs": [
        {
          "name": "",
          "type": "uint256"
        }
      ],
      "payable": false,
      "stateMutability": "view",
      "type": "function"
    },
    {
      "constant": false,
      "inputs": [
        {
          "name": "_name",
          "type": "string"
        },
        {
          "name": "_c",
          "type": "uint8"
        },
        {
          "name": "_salt",
          "type": "uint256"
        },
        {
          "name": "_j2Address",
          "type": "address"
        }
      ],
      "name": "createGame",
      "outputs": [],
      "payable": true,
      "stateMutability": "payable",
      "type": "function"
    },
    {
      "constant": true,
      "inputs": [
        {
          "name": "_gameName",
          "type": "string"
        }
      ],
      "name": "getGameStake",
      "outputs": [
        {
          "name": "",
          "type": "uint256"
        }
      ],
      "payable": false,
      "stateMutability": "view",
      "type": "function"
    },
    {
      "constant": true,
      "inputs": [],
      "name": "getGamesPlayer",
      "outputs": [
        {
          "name": "",
          "type": "string"
        },
        {
          "name": "",
          "type": "string"
        },
        {
          "name": "",
          "type": "string"
        }
      ],
      "payable": false,
      "stateMutability": "view",
      "type": "function"
    },
    {
      "constant": true,
      "inputs": [
        {
          "name": "",
          "type": "address"
        }
      ],
      "name": "playerInfo",
      "outputs": [
        {
          "name": "",
          "type": "uint256"
        }
      ],
      "payable": false,
      "stateMutability": "view",
      "type": "function"
    },
    {
      "constant": true,
      "inputs": [
        {
          "name": "_gameName",
          "type": "string"
        }
      ],
      "name": "getGameTimeData",
      "outputs": [
        {
          "name": "",
          "type": "uint256"
        },
        {
          "name": "",
          "type": "uint256"
        }
      ],
      "payable": false,
      "stateMutability": "view",
      "type": "function"
    },
    {
      "constant": false,
      "inputs": [
        {
          "name": "_c2",
          "type": "uint8"
        },
        {
          "name": "_gameName",
          "type": "string"
        }
      ],
      "name": "play",
      "outputs": [],
      "payable": true,
      "stateMutability": "payable",
      "type": "function"
    },
    {
      "constant": false,
      "inputs": [
        {
          "name": "_gameName",
          "type": "string"
        },
        {
          "name": "_c1",
          "type": "uint8"
        },
        {
          "name": "_salt",
          "type": "uint256"
        }
      ],
      "name": "solve",
      "outputs": [],
      "payable": false,
      "stateMutability": "nonpayable",
      "type": "function"
    },
    {
      "constant": true,
      "inputs": [],
      "name": "playersLen",
      "outputs": [
        {
          "name": "",
          "type": "uint256"
        }
      ],
      "payable": false,
      "stateMutability": "view",
      "type": "function"
    },
    {
      "constant": true,
      "inputs": [
        {
          "name": "_gameName",
          "type": "string"
        }
      ],
      "name": "getGameData",
      "outputs": [
        {
          "name": "",
          "type": "string"
        },
        {
          "name": "",
          "type": "address"
        },
        {
          "name": "",
          "type": "string"
        },
        {
          "name": "",
          "type": "address"
        },
        {
          "name": "",
          "type": "bool"
        }
      ],
      "payable": false,
      "stateMutability": "view",
      "type": "function"
    },
    {
      "constant": true,
      "inputs": [
        {
          "name": "",
          "type": "bytes32"
        }
      ],
      "name": "gameInfo",
      "outputs": [
        {
          "name": "",
          "type": "uint256"
        }
      ],
      "payable": false,
      "stateMutability": "view",
      "type": "function"
    },
    {
      "constant": true,
      "inputs": [
        {
          "name": "_index",
          "type": "uint256"
        }
      ],
      "name": "getPlayerNumber",
      "outputs": [
        {
          "name": "",
          "type": "string"
        },
        {
          "name": "",
          "type": "address"
        }
      ],
      "payable": false,
      "stateMutability": "view",
      "type": "function"
    },
    {
      "constant": false,
      "inputs": [
        {
          "name": "_gameName",
          "type": "string"
        }
      ],
      "name": "j1Timeout",
      "outputs": [],
      "payable": false,
      "stateMutability": "nonpayable",
      "type": "function"
    },
    {
      "constant": false,
      "inputs": [
        {
          "name": "_gameName",
          "type": "string"
        }
      ],
      "name": "j2Timeout",
      "outputs": [],
      "payable": false,
      "stateMutability": "nonpayable",
      "type": "function"
    },
    {
      "constant": false,
      "inputs": [
        {
          "name": "_name",
          "type": "string"
        }
      ],
      "name": "createPlayer",
      "outputs": [],
      "payable": false,
      "stateMutability": "nonpayable",
      "type": "function"
    },
    {
      "constant": true,
      "inputs": [
        {
          "name": "_name",
          "type": "string"
        }
      ],
      "name": "isGame",
      "outputs": [
        {
          "name": "",
          "type": "bool"
        }
      ],
      "payable": false,
      "stateMutability": "view",
      "type": "function"
    },
    {
      "constant": true,
      "inputs": [
        {
          "name": "",
          "type": "uint256"
        }
      ],
      "name": "players",
      "outputs": [
        {
          "name": "vp",
          "type": "address"
        },
        {
          "name": "playerAddress",
          "type": "address"
        },
        {
          "name": "playerName",
          "type": "string"
        },
        {
          "name": "activeGamesCount",
          "type": "uint256"
        }
      ],
      "payable": false,
      "stateMutability": "view",
      "type": "function"
    },
    {
      "anonymous": false,
      "inputs": [
        {
          "indexed": true,
          "name": "owner",
          "type": "address"
        },
        {
          "indexed": false,
          "name": "name",
          "type": "string"
        },
        {
          "indexed": false,
          "name": "index",
          "type": "uint256"
        }
      ],
      "name": "NewPlayer",
      "type": "event"
    },
    {
      "anonymous": false,
      "inputs": [
        {
          "indexed": true,
          "name": "player1",
          "type": "address"
        },
        {
          "indexed": true,
          "name": "player2",
          "type": "address"
        },
        {
          "indexed": false,
          "name": "gameName",
          "type": "string"
        }
      ],
      "name": "NewGame",
      "type": "event"
    },
    {
      "anonymous": false,
      "inputs": [
        {
          "indexed": true,
          "name": "player1",
          "type": "address"
        },
        {
          "indexed": true,
          "name": "player2",
          "type": "address"
        },
        {
          "indexed": false,
          "name": "gameName",
          "type": "string"
        }
      ],
      "name": "SecondPlayerMoved",
      "type": "event"
    },
    {
      "anonymous": false,
      "inputs": [
        {
          "indexed": true,
          "name": "player1",
          "type": "address"
        },
        {
          "indexed": true,
          "name": "player2",
          "type": "address"
        },
        {
          "indexed": false,
          "name": "gameName",
          "type": "string"
        },
        {
          "indexed": true,
          "name": "winner",
          "type": "address"
        }
      ],
      "name": "FirstPlayerRevealed",
      "type": "event"
    },
    {
      "anonymous": false,
      "inputs": [
        {
          "indexed": true,
          "name": "player1",
          "type": "address"
        },
        {
          "indexed": true,
          "name": "player2",
          "type": "address"
        },
        {
          "indexed": false,
          "name": "gameName",
          "type": "string"
        }
      ],
      "name": "J1Timeout",
      "type": "event"
    },
    {
      "anonymous": false,
      "inputs": [
        {
          "indexed": true,
          "name": "player1",
          "type": "address"
        },
        {
          "indexed": true,
          "name": "player2",
          "type": "address"
        },
        {
          "indexed": false,
          "name": "gameName",
          "type": "string"
        }
      ],
      "name": "J2Timeout",
      "type": "event"
    }
  ],
  "bytecode": "0x608060405234801561001057600080fd5b506145e0806100206000396000f3006080604052600436106100ed5763ffffffff60e060020a60003504166309c95e1081146100f2578063117a5b90146101275780631f17a8f3146101e357806327dc479f1461020a5780632857f831146102705780633b8a0e4a146102c95780634b114691146103e25780635053b62e1461040357806351e74b0d146104755780635fac1b84146104c95780636523e2f11461052d57806399f0139b146105425780639e6dae98146106b65780639fce6fb5146106ce578063a9f4b50f14610777578063ae3b6d92146107d0578063b586a74014610829578063c083288014610882578063f71d96cb146108db575b600080fd5b3480156100fe57600080fd5b50610113600160a060020a03600435166109a4565b604080519115158252519081900360200190f35b34801561013357600080fd5b5061013f6004356109d4565b60408051600160a060020a0380881682528581169282019290925290831660608201526080810182905260a06020808301828152875192840192909252865160c084019188019080838360005b838110156101a457818101518382015260200161018c565b50505050905090810190601f1680156101d15780820380516001836020036101000a031916815260200191505b50965050505050505060405180910390f35b3480156101ef57600080fd5b506101f8610aa9565b60408051918252519081900360200190f35b6040805160206004803580820135601f810184900484028501840190955284845261026e9436949293602493928401919081908401838280828437509497505050833560ff169450505060208201359160400135600160a060020a03169050610aaf565b005b34801561027c57600080fd5b506040805160206004803580820135601f81018490048402850184019095528484526101f89436949293602493928401919081908401838280828437509497506111839650505050505050565b3480156102d557600080fd5b506102de611198565b60405180806020018060200180602001848103845287818151815260200191508051906020019080838360005b8381101561032357818101518382015260200161030b565b50505050905090810190601f1680156103505780820380516001836020036101000a031916815260200191505b50848103835286518152865160209182019188019080838360005b8381101561038357818101518382015260200161036b565b50505050905090810190601f1680156103b05780820380516001836020036101000a031916815260200191505b5084810382528551815285516020918201918701908083836000838110156101a457818101518382015260200161018c565b3480156103ee57600080fd5b506101f8600160a060020a03600435166111cb565b34801561040f57600080fd5b506040805160206004803580820135601f810184900484028501840190955284845261045c9436949293602493928401919081908401838280828437509497506111dd9650505050505050565b6040805192835260208301919091528051918290030190f35b60408051602060046024803582810135601f810185900485028601850190965285855261026e95833560ff169536956044949193909101919081908401838280828437509497506112e99650505050505050565b3480156104d557600080fd5b506040805160206004803580820135601f810184900484028501840190955284845261026e9436949293602493928401919081908401838280828437509497505050833560ff1694505050602090910135905061155d565b34801561053957600080fd5b506101f8611a14565b34801561054e57600080fd5b506040805160206004803580820135601f810184900484028501840190955284845261059b943694929360249392840191908190840183828082843750949750611a1a9650505050505050565b604051808060200186600160a060020a0316600160a060020a031681526020018060200185600160a060020a0316600160a060020a0316815260200184151515158152602001838103835288818151815260200191508051906020019080838360005b838110156106165781810151838201526020016105fe565b50505050905090810190601f1680156106435780820380516001836020036101000a031916815260200191505b50838103825286518152865160209182019188019080838360005b8381101561067657818101518382015260200161065e565b50505050905090810190601f1680156106a35780820380516001836020036101000a031916815260200191505b5097505050505050505060405180910390f35b3480156106c257600080fd5b506101f8600435611a7e565b3480156106da57600080fd5b506106e6600435611a90565b604051808060200183600160a060020a0316600160a060020a03168152602001828103825284818151815260200191508051906020019080838360005b8381101561073b578181015183820152602001610723565b50505050905090810190601f1680156107685780820380516001836020036101000a031916815260200191505b50935050505060405180910390f35b34801561078357600080fd5b506040805160206004803580820135601f810184900484028501840190955284845261026e943694929360249392840191908190840183828082843750949750611bf29650505050505050565b3480156107dc57600080fd5b506040805160206004803580820135601f810184900484028501840190955284845261026e943694929360249392840191908190840183828082843750949750611e719650505050505050565b34801561083557600080fd5b506040805160206004803580820135601f810184900484028501840190955284845261026e9436949293602493928401919081908401838280828437509497506120aa9650505050505050565b34801561088e57600080fd5b506040805160206004803580820135601f81018490048402850184019095528484526101139436949293602493928401919081908401838280828437509497506123729650505050505050565b3480156108e757600080fd5b506108f36004356123a0565b6040518085600160a060020a0316600160a060020a0316815260200184600160a060020a0316600160a060020a0316815260200180602001838152602001828103825284818151815260200191508051906020019080838360005b8381101561096657818101518382015260200161094e565b50505050905090810190601f1680156109935780820380516001836020036101000a031916815260200191505b509550505050505060405180910390f35b600160a060020a03811660009081526020819052604081205415156109cb575060006109cf565b5060015b919050565b601e81600681106109e157fe5b60050201805460018083018054604080516020601f600260001997861615610100029790970190941695909504928301859004850281018501909152818152600160a060020a0390941695509091830182828015610a805780601f10610a5557610100808354040283529160200191610a80565b820191906000526020600020905b815481529060010190602001808311610a6357829003601f168201915b50505050600283015460038401546004909401549293600160a060020a03918216939116915085565b603d5481565b610ab76137d5565b610abf6137d5565b60008060008060606006603d54101515610b49576040805160e560020a62461bcd02815260206004820152602f60248201527f546f6f206d616e79206f6e676f696e672067616d65732e20506c65617365206360448201527f6f6d65206261636b206c61746572210000000000000000000000000000000000606482015290519081900360840190fd5b610b52336109a4565b1515610ba8576040805160e560020a62461bcd02815260206004820152601560248201527f506c61796572206e6f7420726567697374657265640000000000000000000000604482015290519081900360640190fd5b610bb1886109a4565b1515610c07576040805160e560020a62461bcd02815260206004820152601560248201527f506c61796572206e6f7420726567697374657265640000000000000000000000604482015290519081900360640190fd5b60003411610c1457600080fd5b600060ff8b1611610c2457600080fd5b610c2d33612464565b965060038760800151101515610cb3576040805160e560020a62461bcd02815260206004820152603560248201527f506c6179657220686173207265616368656420686973206d6178696d756d206e60448201527f756d626572206f66206163746976652067616d65730000000000000000000000606482015290519081900360840190fd5b610cbc88612464565b955060038660800151101515610d42576040805160e560020a62461bcd02815260206004820152603560248201527f506c6179657220686173207265616368656420686973206d6178696d756d206e60448201527f756d626572206f66206163746976652067616d65730000000000000000000000606482015290519081900360840190fd5b85519450610d4e613809565b604051809103906000f080158015610d6a573d6000803e3d6000fd5b50935083600160a060020a03166367ef4c138b8b6040518363ffffffff1660e060020a028152600401808360ff1660ff16815260200182815260200192505050602060405180830381600087803b158015610dc457600080fd5b505af1158015610dd8573d6000803e3d6000fd5b505050506040513d6020811015610dee57600080fd5b50518751604080517ffe1f6a0b00000000000000000000000000000000000000000000000000000000815260048101849052600160a060020a038981166024830152915193965091169163fe1f6a0b916044808201926020929091908290030181600087803b158015610e6057600080fd5b505af1158015610e74573d6000803e3d6000fd5b505050506040513d6020811015610e8a57600080fd5b50519150610e978b612695565b905060a06040519081016040528083600160a060020a0316815260200182815260200133600160a060020a0316815260200189600160a060020a0316815260200134815250601e603d54600681101515610eed57fe5b8251600591909102919091018054600160a060020a031916600160a060020a039092169190911781556020808301518051610f2e9260018501920190613818565b506040820151600282018054600160a060020a03928316600160a060020a0319918216179091556060840151600384018054919093169116179055608090910151600490910155603d80546001908101918290556000610f8d846127e2565b815260208082019290925260409081016000908120939093553383529082905290205481906002906000190160048110610fc357fe5b600702016003018860800151600381101515610fdb57fe5b019080519060200190610fef929190613818565b50600160a060020a0388166000908152602081905260409020548190600290600019016004811061101c57fe5b60070201600301876080015160038110151561103457fe5b019080519060200190611048929190613818565b50608087015133600090815260208190526040902054600190910190600290600019016004811061107557fe5b60070201600601819055508560800151600101600260016000808c600160a060020a0316600160a060020a0316815260200190815260200160002054036004811015156110be57fe5b600702016006018190555087600160a060020a031633600160a060020a03167f51d92102a2024fe7cc6a6a9f1c111a459e679a12ea42b52cd316e0831d9a8020836040518080602001828103825283818151815260200191508051906020019080838360005b8381101561113c578181015183820152602001611124565b50505050905090810190601f1680156111695780820380516001836020036101000a031916815260200191505b509250505060405180910390a35050505050505050505050565b600061118e826128c7565b6080015192915050565b60608060606111a5613896565b6111ae33612464565b606001518051602082015160409092015190969195509350915050565b60006020819052908152604090205481565b60008060006111eb84612a45565b905080600160a060020a03166389f71d536040518163ffffffff1660e060020a028152600401602060405180830381600087803b15801561122b57600080fd5b505af115801561123f573d6000803e3d6000fd5b505050506040513d602081101561125557600080fd5b5051604080517ff56f48f20000000000000000000000000000000000000000000000000000000081529051600160a060020a0384169163f56f48f29160048083019260209291908290030181600087803b1580156112b257600080fd5b505af11580156112c6573d6000803e3d6000fd5b505050506040513d60208110156112dc57600080fd5b5051909350915050915091565b6112f16138be565b6112f96137d5565b60008061130585612372565b151561135b576040805160e560020a62461bcd02815260206004820152601360248201527f47616d6520646f65736e27742065786973742100000000000000000000000000604482015290519081900360640190fd5b611364856128c7565b9350611371600286612a57565b6020810151909350600160a060020a031633146113fe576040805160e560020a62461bcd02815260206004820152603860248201527f52657175657374696e6720706c61796572206973206e6f74207468652073656360448201527f6f6e6420706c61796572206f6620746869732067616d65210000000000000000606482015290519081900360840190fd5b825184516040517fbca7437b000000000000000000000000000000000000000000000000000000008152600160a060020a038281166004830190815293955085169263bca7437b92918a919060240182600581111561145957fe5b60ff16815260200192505050600060405180830381600087803b15801561147f57600080fd5b505af1158015611493573d6000803e3d6000fd5b505050506114a2600186612a57565b60200151905033600160a060020a031681600160a060020a03167f7570938286d9f6c0999800d0b2f89e02149ff3872cd10eb5836c99268035c1b0876040518080602001828103825283818151815260200191508051906020019080838360005b8381101561151b578181015183820152602001611503565b50505050905090810190601f1680156115485780820380516001836020036101000a031916815260200191505b509250505060405180910390a3505050505050565b60006115676137d5565b600080600080600080600061157b8c612a45565b985061158860018d612a57565b6020810151909850600160a060020a03163314611615576040805160e560020a62461bcd02815260206004820152603760248201527f52657175657374696e6720706c61796572206973206e6f74207468652066697260448201527f737420706c61796572206f6620746869732067616d6521000000000000000000606482015290519081900360840190fd5b61161e8c6128c7565b6080015196508760000151955085600160a060020a031663fd0b8e958a8d8d6040518463ffffffff1660e060020a0281526004018084600160a060020a0316600160a060020a0316815260200183600581111561167757fe5b60ff1681526020018281526020019350505050600060405180830381600087803b1580156116a457600080fd5b505af11580156116b8573d6000803e3d6000fd5b505050506116c760028d612a57565b60200151945088600160a060020a03166348e257cb6040518163ffffffff1660e060020a028152600401602060405180830381600087803b15801561170b57600080fd5b505af115801561171f573d6000803e3d6000fd5b505050506040513d602081101561173557600080fd5b50516040517f0c4395b9000000000000000000000000000000000000000000000000000000008152909450600160a060020a038a1690630c4395b9908d9087906004018083600581111561178557fe5b60ff16815260200182600581111561179957fe5b60ff16815260200192505050602060405180830381600087803b1580156117bf57600080fd5b505af11580156117d3573d6000803e3d6000fd5b505050506040513d60208110156117e957600080fd5b50516040517f0c4395b9000000000000000000000000000000000000000000000000000000008152909350600160a060020a038a1690630c4395b99086908e906004018083600581111561183957fe5b60ff16815260200182600581111561184d57fe5b60ff16815260200192505050602060405180830381600087803b15801561187357600080fd5b505af1158015611887573d6000803e3d6000fd5b505050506040513d602081101561189d57600080fd5b5051915082156118ce5760405133906002890280156108fc02916000818181858888f1935050505050339050611946565b811561190457604051600160a060020a038616906002890280156108fc02916000818181858888f1935050505050849050611946565b604051339088156108fc029089906000818181858888f15050604051600160a060020a03891693508a156108fc0292508a91506000818181858888f150505050505b61194f8c612cc6565b80600160a060020a031685600160a060020a031633600160a060020a03167f3731533340919cfa7cbd6d0561bcb6824cf3b12bb3fb490c8d3bae4b508954358f6040518080602001828103825283818151815260200191508051906020019080838360005b838110156119cc5781810151838201526020016119b4565b50505050905090810190601f1680156119f95780820380516001836020036101000a031916815260200191505b509250505060405180910390a4505050505050505050505050565b603c5481565b606060006060600080611a2b6137d5565b611a336137d5565b611a3e600189612a57565b9150611a4b600289612a57565b90508160400151826020015182604001518360200151611a6a8c61353d565b939c929b5090995097509095509350505050565b60016020526000908152604090205481565b6060600082600011158015611aa65750603c5483105b1515611b22576040805160e560020a62461bcd02815260206004820152602560248201527f42616420726571756573742120496e646578206f7574206f6620626f756e646160448201527f726965732e000000000000000000000000000000000000000000000000000000606482015290519081900360840190fd5b60028360048110611b2f57fe5b60070201600201600284600481101515611b4557fe5b600702016001908101548254604080516020600261010096851615969096026000190190931694909404601f8101839004830285018301909152808452600160a060020a0390921692918491830182828015611be25780601f10611bb757610100808354040283529160200191611be2565b820191906000526020600020905b815481529060010190602001808311611bc557829003601f168201915b5050505050915091509150915091565b6000611bfc6137d5565b600080600080611c0b87612a45565b9550611c18600288612a57565b6020810151909550600160a060020a03163314611ca5576040805160e560020a62461bcd02815260206004820152603860248201527f52657175657374696e6720706c61796572206973206e6f74207468652073656360448201527f6f6e6420706c61796572206f6620746869732067616d65210000000000000000606482015290519081900360840190fd5b611cae876128c7565b6080015193508460000151925082600160a060020a031663966abba7876040518263ffffffff1660e060020a0281526004018082600160a060020a0316600160a060020a03168152602001915050600060405180830381600087803b158015611d1657600080fd5b505af1158015611d2a573d6000803e3d6000fd5b5050506020860151604051909350600160a060020a03841691506002860280156108fc02916000818181858888f1935050505050611d69600188612a57565b602001519050611d7887612cc6565b600160a060020a0381166000908152602081905260409020546002906000190160048110611da257fe5b600702016006015460001415611dbb57611dbb816135ca565b81600160a060020a031681600160a060020a03167fead18f13f24452b7a4852893f3cefec7106355b1e992462a8f90803d4898dda8896040518080602001828103825283818151815260200191508051906020019080838360005b83811015611e2e578181015183820152602001611e16565b50505050905090810190601f168015611e5b5780820380516001836020036101000a031916815260200191505b509250505060405180910390a350505050505050565b6000611e7b6137d5565b600080600080611e8a87612a45565b9550611e97600188612a57565b6020810151909550600160a060020a03163314611f24576040805160e560020a62461bcd02815260206004820152603760248201527f52657175657374696e6720706c61796572206973206e6f74207468652066697260448201527f737420706c61796572206f6620746869732067616d6521000000000000000000606482015290519081900360840190fd5b611f2d876128c7565b6080015193508460000151925082600160a060020a031663ae4800ff876040518263ffffffff1660e060020a0281526004018082600160a060020a0316600160a060020a03168152602001915050600060405180830381600087803b158015611f9557600080fd5b505af1158015611fa9573d6000803e3d6000fd5b5050506020860151604051909350600160a060020a038416915085156108fc029086906000818181858888f1935050505050611fe6600288612a57565b602001519050611ff587612cc6565b600160a060020a038116600090815260208190526040902054600290600019016004811061201f57fe5b60070201600601546000141561203857612038816135ca565b80600160a060020a031633600160a060020a03167f8e9c0f891fe08a324ebb4d8a8786825b21104fe88169db8a1efd5a8662df978a8960405180806020018281038252838181518152602001915080519060200190808383600083811015611e2e578181015183820152602001611e16565b6120b2613896565b603c54600411612132576040805160e560020a62461bcd02815260206004820152603460248201527f546f6f206d616e79207265676973746572656420706c61796572732e20506c6560448201527f61736520636f6d65206261636b206c6174657221000000000000000000000000606482015290519081900360840190fd5b61213b336109a4565b15612190576040805160e560020a62461bcd02815260206004820152601960248201527f506c6179657220616c7265616479207265676973746572656400000000000000604482015290519081900360640190fd5b50604080516080810182526000606082018181528252825160208181018552828252808401919091528351908101845290815281830152815160a0810190925290806121da6138ed565b604051809103906000f0801580156121f6573d6000803e3d6000fd5b50600160a060020a0316815233602082015260408101849052606081018390526000608090910152603c546002906004811061222e57fe5b8251600791909102919091018054600160a060020a0319908116600160a060020a03938416178255602080850151600184018054909316941693909317905560408301518051919261228892600285019290910190613818565b50606082015161229e90600380840191906138fd565b5060809190910151600690910155603c805460010190819055336000818152602081815260408083208590558051808301869052818152875191810191909152865193947f5ca95187458a3a347baad567891df2db769ad6c7e1a06e416d9132abd658cbee94889491938392606084019291870191908190849084905b8381101561233357818101518382015260200161231b565b50505050905090810190601f1680156123605780820380516001836020036101000a031916815260200191505b50935050505060405180910390a25050565b600060016000612381846127e2565b815260208101919091526040016000205415156109cb575060006109cf565b600281600481106123ad57fe5b6007020180546001808301546002808501805460408051602061010097841615979097026000190190921693909304601f8101869004860282018601909352828152600160a060020a039586169750949092169493928301828280156124545780601f1061242957610100808354040283529160200191612454565b820191906000526020600020905b81548152906001019060200180831161243757829003601f168201915b5050505050908060060154905084565b61246c6137d5565b612475826109a4565b15156124cb576040805160e560020a62461bcd02815260206004820152601560248201527f506c6179657220646f65736e2774206578697374210000000000000000000000604482015290519081900360640190fd5b600160a060020a03821660009081526020819052604090205460029060001901600481106124f557fe5b6040805160a081018252600792909202929092018054600160a060020a0390811683526001808301549091166020808501919091526002808401805487516101009582161595909502600019011691909104601f81018390048302840183018752808452949593949386019390918301828280156125b45780601f10612589576101008083540402835291602001916125b4565b820191906000526020600020905b81548152906001019060200180831161259757829003601f168201915b5050505050815260200160038201600380602002604051908101604052809291906000905b8282101561267c57838201805460408051602060026001851615610100026000190190941693909304601f810184900484028201840190925281815292918301828280156126685780601f1061263d57610100808354040283529160200191612668565b820191906000526020600020905b81548152906001019060200180831161264b57829003601f168201915b5050505050815260200190600101906125d9565b5050505081526020016006820154815250509050919050565b6060816126a181612372565b1561273857826040516020018082805190602001908083835b602083106126d95780518252601f1990920191602091820191016126ba565b6001836020036101000a038019825116818451168082178552505050505050905001807f2d7632000000000000000000000000000000000000000000000000000000000081525060030191505060405160208183030381529060405290505b61274181612372565b156127dc57806040516020018082805190602001908083835b602083106127795780518252601f19909201916020918201910161275a565b6001836020036101000a038019825116818451168082178552505050505050905001807f2e310000000000000000000000000000000000000000000000000000000000008152506002019150506040516020818303038152906040529050612738565b92915050565b6000816040516020018080602001828103825283818151815260200191508051906020019080838360005b8381101561282557818101518382015260200161280d565b50505050905090810190601f1680156128525780820380516001836020036101000a031916815260200191505b50925050506040516020818303038152906040526040518082805190602001908083835b602083106128955780518252601f199092019160209182019101612876565b5181516020939093036101000a6000190180199091169216919091179052604051920182900390912095945050505050565b6128cf6138be565b6128d882612372565b151561292e576040805160e560020a62461bcd02815260206004820152601360248201527f47616d6520646f65736e27742065786973742100000000000000000000000000604482015290519081900360640190fd5b601e600180600061293e866127e2565b8152602081019190915260400160002054036006811061295a57fe5b6040805160a081018252600592909202929092018054600160a060020a031682526001808201805485516020600261010095841615959095026000190190921693909304601f8101829004820284018201909652858352939492938086019390830182828015612a0b5780601f106129e057610100808354040283529160200191612a0b565b820191906000526020600020905b8154815290600101906020018083116129ee57829003601f168201915b50505091835250506002820154600160a060020a039081166020830152600383015416604082015260049091015460609091015292915050565b6000612a50826128c7565b5192915050565b612a5f6137d5565b612a676138be565b60008460ff1660011480612a7e57508460ff166002145b1515612ad4576040805160e560020a62461bcd02815260206004820152600c60248201527f4261642072657175657374210000000000000000000000000000000000000000604482015290519081900360640190fd5b612add846128c7565b9150816040015190508460ff1660021415612af9575060608101515b600160a060020a0381166000908152602081905260409020546002906000190160048110612b2357fe5b6040805160a081018252600792909202929092018054600160a060020a0390811683526001808301549091166020808501919091526002808401805487516101009582161595909502600019011691909104601f8101839004830284018301875280845294959394938601939091830182828015612be25780601f10612bb757610100808354040283529160200191612be2565b820191906000526020600020905b815481529060010190602001808311612bc557829003601f168201915b5050505050815260200160038201600380602002604051908101604052809291906000905b82821015612caa57838201805460408051602060026001851615610100026000190190941693909304601f81018490048402820184019092528181529291830182828015612c965780601f10612c6b57610100808354040283529160200191612c96565b820191906000526020600020905b815481529060010190602001808311612c7957829003601f168201915b505050505081526020019060010190612c07565b5050505081526020016006820154815250509250505092915050565b600080600080600080612cd8876127e2565b600081815260016020526040902054909650601e906000190160068110612cfb57fe5b60050201600290810154600160a060020a0316600081815260208190526040902054909650600191906000190160048110612d3257fe5b6007020160060154036002600160008089600160a060020a0316600160a060020a031681526020019081526020016000205403600481101515612d7157fe5b6007020160060155600160a060020a0385166000908152602081905260409020546002906000190160048110612da357fe5b600702016006015493508560001916612e8e600260016000808a600160a060020a0316600160a060020a031681526020019081526020016000205403600481101515612deb57fe5b6007020160030186600381101515612dff57fe5b01805460408051602060026001851615610100026000190190941693909304601f81018490048402820184019092528181529291830182828015612e845780601f10612e5957610100808354040283529160200191612e84565b820191906000526020600020905b815481529060010190602001808311612e6757829003601f168201915b50505050506127e2565b14612fe057600160a060020a0385166000908152602081905260409020548690612eda906002906000190160048110612ec357fe5b6007020160030160018703600381101515612dff57fe5b1415612eeb57600184039250612f3f565b600160a060020a0385166000908152602081905260409020548690612f32906002906000190160048110612f1b57fe5b6007020160030160028703600381101515612dff57fe5b1415612f3f576002840392505b600160a060020a0385166000908152602081905260409020546002906000190160048110612f6957fe5b6007020160030184600381101515612f7d57fe5b600160a060020a0387166000908152602081905260409020549101906002906000190160048110612faa57fe5b6007020160030184600381101515612fbe57fe5b019080546001816001161561010002031660029004612fde929190613949565b505b60408051602081810183526000808352600160a060020a0389168152908190529190912054600290600019016004811061301657fe5b60070201600301600260016000808a600160a060020a0316600160a060020a03168152602001908152602001600020540360048110151561305357fe5b600702016006015460038110151561306757fe5b01908051906020019061307b929190613818565b50600086815260016020526040902054601e90600019016006811061309c57fe5b6005020160030154600160a060020a031660008181526020819052604090205490925060019060029060001901600481106130d357fe5b6007020160060154036002600160008086600160a060020a0316600160a060020a03168152602001908152602001600020540360048110151561311257fe5b6007020160060155600160a060020a038216600090815260208190526040902054600290600019016004811061314457fe5b60070201600601549350856000191661318c6002600160008087600160a060020a0316600160a060020a031681526020019081526020016000205403600481101515612deb57fe5b146132b057600160a060020a03821660009081526020819052604090205486906131c1906002906000190160048110612ec357fe5b14156131d25760018403925061320f565b600160a060020a0382166000908152602081905260409020548690613202906002906000190160048110612f1b57fe5b141561320f576002840392505b600160a060020a038216600090815260208190526040902054600290600019016004811061323957fe5b600702016003018460038110151561324d57fe5b600160a060020a038416600090815260208190526040902054910190600290600019016004811061327a57fe5b600702016003018460038110151561328e57fe5b0190805460018160011615610100020316600290046132ae929190613949565b505b60408051602081810183526000808352600160a060020a038616815290819052919091205460029060001901600481106132e657fe5b600702016003016002600160008087600160a060020a0316600160a060020a03168152602001908152602001600020540360048110151561332357fe5b600702016006015460038110151561333757fe5b01908051906020019061334b929190613818565b5050600085815260016020526040812054600019019081106134bb57603d54601e90600019016006811061337b57fe5b60050201601e826006811061338c57fe5b8254600591909102919091018054600160a060020a031916600160a060020a03909216919091178155600180830180546133dd92808501929160026000199282161561010002929092011604613949565b506002828101549082018054600160a060020a03928316600160a060020a031991821617909155600380850154908401805491909316911617905560049182015491015560018181019060006134a9601e856006811061343957fe5b600502016001018054600181600116156101000203166002900480601f016020809104026020016040519081016040528092919081815260200182805460018160011615610100020316600290048015612e845780601f10612e5957610100808354040283529160200191612e84565b81526020810191909152604001600020555b603d54601e9060001901600681106134cf57fe5b600502018054600160a060020a031916815560006134f060018301826139be565b50600281018054600160a060020a0319908116909155600382018054909116905560006004909101819055603d805460001901905595865250506001602052505060408220919091555050565b60008061354983612a45565b9050600081600160a060020a03166348e257cb6040518163ffffffff1660e060020a028152600401602060405180830381600087803b15801561358b57600080fd5b505af115801561359f573d6000803e3d6000fd5b505050506040513d60208110156135b557600080fd5b505160058111156135c257fe5b149392505050565b600160a060020a03811660009081526020819052604081205460029060001901600481106135f457fe5b60070201600601546000141515613655576040805160e560020a62461bcd02815260206004820152601760248201527f506c6179657220686173206163746976652067616d6573000000000000000000604482015290519081900360640190fd5b50600160a060020a0381166000908152602081905260408120546000190190811061375557603c54600290600019016004811061368e57fe5b600702016002826004811061369f57fe5b8254600791909102919091018054600160a060020a0319908116600160a060020a039384161782556001808501548184018054909316941693909317905560028084018054929361370193838601939181161561010002600019011604613949565b5061371460038281019084810190613a05565b50600691820154910155600181016000806002846004811061373257fe5b6007020160010154600160a060020a031681526020810191909152604001600020555b603c54600290600019016004811061376957fe5b600702018054600160a060020a031990811682556001820180549091169055600061379760028301826139be565b6137a5600383016000613a4e565b506000600691909101819055603c8054600019019055600160a060020a0390921682525060208190526040812055565b6040805160e0810182526000808252602082015260609181018290529081016137fc613896565b8152602001600081525090565b60405160fe80613abd83390190565b828054600181600116156101000203166002900490600052602060002090601f016020900481019282601f1061385957805160ff1916838001178555613886565b82800160010185558215613886579182015b8281111561388657825182559160200191906001019061386b565b50613892929150613a7c565b5090565b6060604051908101604052806003905b60608152602001906001900390816138a65790505090565b6040805160a0810182526000808252606060208301819052928201819052918101829052608081019190915290565b6040516109fa80613bbb83390190565b826003810192821561393d579160200282015b8281111561393d578251805161392d918491602090910190613818565b5091602001919060010190613910565b50613892929150613a99565b828054600181600116156101000203166002900490600052602060002090601f016020900481019282601f106139825780548555613886565b8280016001018555821561388657600052602060002091601f016020900482015b828111156138865782548255916001019190600101906139a3565b50805460018160011615610100020316600290046000825580601f106139e45750613a02565b601f016020900490600052602060002090810190613a029190613a7c565b50565b826003810192821561393d579182015b8281111561393d5782829080546001816001161561010002031660029004613a3e929190613949565b5091600101919060010190613a15565b506000613a5b82826139be565b506001016000613a6b82826139be565b50613a7a9060010160006139be565b565b613a9691905b808211156138925760008155600101613a82565b90565b613a9691905b80821115613892576000613ab382826139be565b50600101613a9f56006080604052348015600f57600080fd5b5060e08061001e6000396000f300608060405260043610603e5763ffffffff7c010000000000000000000000000000000000000000000000000000000060003504166367ef4c1381146043575b600080fd5b348015604e57600080fd5b50605e60ff600435166024356070565b60408051918252519081900360200190f35b604080517f010000000000000000000000000000000000000000000000000000000000000060ff8516028152600181018390529051908190036021019020929150505600a165627a7a72305820260eb3b8bf43dcdd16dbc3c724258139f0a95cab94f7eedf05604e437c7e3aaf0029608060405234801561001057600080fd5b506109da806100206000396000f3006080604052600436106100535763ffffffff60e060020a600035041663966abba78114610058578063ae4800ff1461007b578063bca7437b1461009c578063fd0b8e95146100b6578063fe1f6a0b146100e0575b600080fd5b34801561006457600080fd5b50610079600160a060020a0360043516610113565b005b34801561008757600080fd5b50610079600160a060020a036004351661016c565b610079600160a060020a036004351660ff602435166101aa565b3480156100c257600080fd5b50610079600160a060020a036004351660ff60243516604435610234565b6100f7600435600160a060020a03602435166102b0565b60408051600160a060020a039092168252519081900360200190f35b80600160a060020a031663c83911426040518163ffffffff1660e060020a028152600401600060405180830381600087803b15801561015157600080fd5b505af1158015610165573d6000803e3d6000fd5b5050505050565b80600160a060020a031663294914a46040518163ffffffff1660e060020a028152600401600060405180830381600087803b15801561015157600080fd5b6040517f53a04b05000000000000000000000000000000000000000000000000000000008152600160a060020a038316906353a04b05908390600401808260058111156101f357fe5b60ff168152602001915050600060405180830381600087803b15801561021857600080fd5b505af115801561022c573d6000803e3d6000fd5b505050505050565b82600160a060020a031663a5ddec7c83836040518363ffffffff1660e060020a0281526004018083600581111561026757fe5b60ff16815260200182815260200192505050600060405180830381600087803b15801561029357600080fd5b505af11580156102a7573d6000803e3d6000fd5b50505050505050565b600082826102bc6102f4565b918252600160a060020a03166020820152604080519182900301906000f0801580156102ec573d6000803e3d6000fd5b509392505050565b6040516106aa806103058339019056006080604081815261012c600555806106aa8339810160405280516020909101513460045560008054600160a060020a0319908116331790915560018054600160a060020a039093169290911691909117905560025542600655610643806100676000396000f3006080604052600436106100b95763ffffffff7c01000000000000000000000000000000000000000000000000000000006000350416630c4395b981146100be578063294914a4146100f35780633a4b66f11461010a57806348e257cb146101315780634d03e3d21461016a57806353a04b051461017f57806380985af91461018d57806389f71d53146101be578063a5ddec7c146101d3578063c37597c6146101f1578063c839114214610206578063f56f48f21461021b575b600080fd5b3480156100ca57600080fd5b506100df60ff60043581169060243516610230565b604080519115158252519081900360200190f35b3480156100ff57600080fd5b506101086102ec565b005b34801561011657600080fd5b5061011f61034c565b60408051918252519081900360200190f35b34801561013d57600080fd5b50610146610352565b6040518082600581111561015657fe5b60ff16815260200191505060405180910390f35b34801561017657600080fd5b5061011f61035b565b61010860ff60043516610361565b34801561019957600080fd5b506101a26103e1565b60408051600160a060020a039092168252519081900360200190f35b3480156101ca57600080fd5b5061011f6103f0565b3480156101df57600080fd5b5061010860ff600435166024356103f6565b3480156101fd57600080fd5b506101a261059c565b34801561021257600080fd5b506101086105ab565b34801561022757600080fd5b5061011f610611565b600081600581111561023e57fe5b83600581111561024a57fe5b1415610258575060006102e6565b600083600581111561026657fe5b1415610274575060006102e6565b600282600581111561028257fe5b81151561028b57fe5b06600284600581111561029a57fe5b8115156102a357fe5b0614156102ca578160058111156102b657fe5b8360058111156102c257fe5b1090506102e6565b8160058111156102d657fe5b8360058111156102e257fe5b1190505b92915050565b600060035460ff1660058111156102ff57fe5b1461030957600080fd5b60055460065401421161031b57600080fd5b60008054600454604051600160a060020a039092169281156108fc029290818181858888f150506000600455505050565b60045481565b60035460ff1681565b60025481565b600060035460ff16600581111561037457fe5b1461037e57600080fd5b600081600581111561038c57fe5b141561039757600080fd5b60045434146103a557600080fd5b600154600160a060020a031633146103bc57600080fd5b6003805482919060ff191660018360058111156103d557fe5b02179055505042600655565b600154600160a060020a031681565b60065481565b600082600581111561040457fe5b141561040f57600080fd5b600060035460ff16600581111561042257fe5b141561042d57600080fd5b600054600160a060020a0316331461044457600080fd5b600254604051839083908083600581111561045b57fe5b60ff167f0100000000000000000000000000000000000000000000000000000000000000028152600101828152602001925050506040518091039020600019161415156104a757600080fd5b6003546104b890839060ff16610230565b156104f35760008054600454604051600160a060020a0390921692600290910280156108fc02929091818181858888f1935050505050610593565b6003546105039060ff1683610230565b1561053d57600154600454604051600160a060020a0390921691600290910280156108fc02916000818181858888f1935050505050610593565b60008054600454604051600160a060020a039092169281156108fc029290818181858888f15050600154600454604051600160a060020a03909216945080156108fc02935091506000818181858888f150505050505b50506000600455565b600054600160a060020a031681565b600060035460ff1660058111156105be57fe5b14156105c957600080fd5b6005546006540142116105db57600080fd5b600154600454604051600160a060020a0390921691600290910280156108fc02916000818181858888f150506000600455505050565b600554815600a165627a7a72305820fe1451ba5e9be5198ea81766ec0c5f32b5ab03b6e47b6ff4c2fd05c1940f4dc60029a165627a7a72305820a87441ef86fb8a67dd3e8d29e08288eb833fce9083ae22c47dd74f9b3375b4510029a165627a7a723058200220c01ffaee5e4389e7b341d2278490fa0640ab37f56d24e77cc75a186a7b180029",
  "linkReferences": {},
  "deployedLinkReferences": {}
}