{
  "_format": "hh-sol-artifact-1",
  "contractName": "ContractsHandler",
  "sourceName": "contracts/ContractsHandler.sol",
  "abi": [
    {
      "constant": true,
      "inputs": [
        {
          "name": "_addr",
          "type": "address"
        }
      ],
      "name": "isPlayer",
      "outputs": [
        {
          "name": "",
          "type": "bool"
        }
      ],
      "payable": false,
      "stateMutability": "view",
      "type": "function"
    },
    {
      "constant": true,
      "inputs": [],
      "name": "gamesLen",
      "outputs": [
        {
          "name": "",
          "type": "uint256"
        }
      ],
      "payable": false,
      "stateMutability": "view",
      "type": "function"
    },
    {
      "constant": false,
      "inputs": [
        {
          "name": "_name",
          "type": "string"
        },
        {
          "name": "_c",
          "type": "uint8"
        },
        {
          "name": "_salt",
          "type": "uint256"
        },
        {
          "name": "_j2Address",
          "type": "address"
        }
      ],
      "name": "createGame",
      "outputs": [],
      "payable": true,
      "stateMutability": "payable",
      "type": "function"
    },
    {
      "constant": true,
      "inputs": [
        {
          "name": "_gameName",
          "type": "string"
        }
      ],
      "name": "getGameStake",
      "outputs": [
        {
          "name": "",
          "type": "uint256"
        }
      ],
      "payable": false,
      "stateMutability": "view",
      "type": "function"
    },
    {
      "constant": true,
      "inputs": [],
      "name": "getGamesPlayer",
      "outputs": [
        {
          "name": "",
          "type": "string"
        },
        {
          "name": "",
          "type": "string"
        },
        {
          "name": "",
          "type": "string"
        }
      ],
      "payable": false,
      "stateMutability": "view",
      "type": "function"
    },
    {
      "constant": true,
      "inputs": [
        {
          "name": "_gameName",
          "type": "string"
        }
      ],
      "name": "getGameTimeData",
      "outputs": [
        {
          "name": "",
          "type": "uint256"
        },
        {
          "name": "",
          "type": "uint256"
        }
      ],
      "payable": false,
      "stateMutability": "view",
      "type": "function"
    },
    {
      "constant": false,
      "inputs": [
        {
          "name": "_c2",
          "type": "uint8"
        },
        {
          "name": "_gameName",
          "type": "string"
        }
      ],
      "name": "play",
      "outputs": [],
      "payable": true,
      "stateMutability": "payable",
      "type": "function"
    },
    {
      "constant": false,
      "inputs": [
        {
          "name": "_gameName",
          "type": "string"
        },
        {
          "name": "_c1",
          "type": "uint8"
        },
        {
          "name": "_salt",
          "type": "uint256"
        }
      ],
      "name": "solve",
      "outputs": [],
      "payable": false,
      "stateMutability": "nonpayable",
      "type": "function"
    },
    {
      "constant": true,
      "inputs": [],
      "name": "playersLen",
      "outputs": [
        {
          "name": "",
          "type": "uint256"
        }
      ],
      "payable": false,
      "stateMutability": "view",
      "type": "function"
    },
    {
      "constant": true,
      "inputs": [
        {
          "name": "_gameName",
          "type": "string"
        }
      ],
      "name": "getGameData",
      "outputs": [
        {
          "name": "",
          "type": "string"
        },
        {
          "name": "",
          "type": "address"
        },
        {
          "name": "",
          "type": "string"
        },
        {
          "name": "",
          "type": "address"
        },
        {
          "name": "",
          "type": "bool"
        }
      ],
      "payable": false,
      "stateMutability": "view",
      "type": "function"
    },
    {
      "constant": true,
      "inputs": [
        {
          "name": "_index",
          "type": "uint256"
        }
      ],
      "name": "getPlayerNumber",
      "outputs": [
        {
          "name": "",
          "type": "string"
        },
        {
          "name": "",
          "type": "address"
        }
      ],
      "payable": false,
      "stateMutability": "view",
      "type": "function"
    },
    {
      "constant": false,
      "inputs": [
        {
          "name": "_gameName",
          "type": "string"
        }
      ],
      "name": "j1Timeout",
      "outputs": [],
      "payable": false,
      "stateMutability": "nonpayable",
      "type": "function"
    },
    {
      "constant": false,
      "inputs": [
        {
          "name": "_gameName",
          "type": "string"
        }
      ],
      "name": "j2Timeout",
      "outputs": [],
      "payable": false,
      "stateMutability": "nonpayable",
      "type": "function"
    },
    {
      "constant": false,
      "inputs": [
        {
          "name": "_name",
          "type": "string"
        }
      ],
      "name": "createPlayer",
      "outputs": [],
      "payable": false,
      "stateMutability": "nonpayable",
      "type": "function"
    },
    {
      "constant": true,
      "inputs": [
        {
          "name": "_gameName",
          "type": "string"
        }
      ],
      "name": "isGame",
      "outputs": [
        {
          "name": "",
          "type": "bool"
        }
      ],
      "payable": false,
      "stateMutability": "view",
      "type": "function"
    },
    {
      "anonymous": false,
      "inputs": [
        {
          "indexed": true,
          "name": "owner",
          "type": "address"
        },
        {
          "indexed": false,
          "name": "name",
          "type": "string"
        }
      ],
      "name": "NewPlayer",
      "type": "event"
    },
    {
      "anonymous": false,
      "inputs": [
        {
          "indexed": true,
          "name": "player1",
          "type": "address"
        },
        {
          "indexed": true,
          "name": "player2",
          "type": "address"
        },
        {
          "indexed": false,
          "name": "gameName",
          "type": "string"
        }
      ],
      "name": "NewGame",
      "type": "event"
    },
    {
      "anonymous": false,
      "inputs": [
        {
          "indexed": true,
          "name": "player1",
          "type": "address"
        },
        {
          "indexed": true,
          "name": "player2",
          "type": "address"
        },
        {
          "indexed": false,
          "name": "gameName",
          "type": "string"
        }
      ],
      "name": "SecondPlayerMoved",
      "type": "event"
    },
    {
      "anonymous": false,
      "inputs": [
        {
          "indexed": true,
          "name": "player1",
          "type": "address"
        },
        {
          "indexed": true,
          "name": "player2",
          "type": "address"
        },
        {
          "indexed": false,
          "name": "gameName",
          "type": "string"
        },
        {
          "indexed": true,
          "name": "winner",
          "type": "address"
        }
      ],
      "name": "FirstPlayerRevealed",
      "type": "event"
    },
    {
      "anonymous": false,
      "inputs": [
        {
          "indexed": true,
          "name": "player1",
          "type": "address"
        },
        {
          "indexed": true,
          "name": "player2",
          "type": "address"
        },
        {
          "indexed": false,
          "name": "gameName",
          "type": "string"
        }
      ],
      "name": "J1Timeout",
      "type": "event"
    },
    {
      "anonymous": false,
      "inputs": [
        {
          "indexed": true,
          "name": "player1",
          "type": "address"
        },
        {
          "indexed": true,
          "name": "player2",
          "type": "address"
        },
        {
          "indexed": false,
          "name": "gameName",
          "type": "string"
        }
      ],
      "name": "J2Timeout",
      "type": "event"
    }
  ],
  "bytecode": "0x60806040526000805461010060a860020a03191674694aa1769357215de4fac081bf1f309adc3253060017905534801561003857600080fd5b50615737806100486000396000f300608060405260043610620000d15763ffffffff60e060020a60003504166309c95e108114620000d65780631f17a8f3146200010e57806327dc479f14620001385780632857f83114620001a05780633b8a0e4a14620001fc5780635053b62e146200036157806351e74b0d14620003d65780635fac1b84146200042c5780636523e2f1146200049357806399f0139b14620004ab5780639fce6fb51462000628578063a9f4b50f14620006d7578063ae3b6d921462000733578063b586a740146200078f578063c083288014620007eb575b600080fd5b348015620000e357600080fd5b50620000fa600160a060020a036004351662000847565b604080519115158252519081900360200190f35b3480156200011b57600080fd5b506200012662000867565b60408051918252519081900360200190f35b6040805160206004803580820135601f81018490048402850184019095528484526200019e9436949293602493928401919081908401838280828437509497505050833560ff169450505060208201359160400135600160a060020a031690506200086d565b005b348015620001ad57600080fd5b506040805160206004803580820135601f810184900484028501840190955284845262000126943694929360249392840191908190840183828082843750949750620011fd9650505050505050565b3480156200020957600080fd5b506200021462001354565b60405180806020018060200180602001848103845287818151815260200191508051906020019080838360005b838110156200025b57818101518382015260200162000241565b50505050905090810190601f168015620002895780820380516001836020036101000a031916815260200191505b50848103835286518152865160209182019188019080838360005b83811015620002be578181015183820152602001620002a4565b50505050905090810190601f168015620002ec5780820380516001836020036101000a031916815260200191505b50848103825285518152855160209182019187019080838360005b838110156200032157818101518382015260200162000307565b50505050905090810190601f1680156200034f5780820380516001836020036101000a031916815260200191505b50965050505050505060405180910390f35b3480156200036e57600080fd5b506040805160206004803580820135601f8101849004840285018401909552848452620003bd943694929360249392840191908190840183828082843750949750620014f29650505050505050565b6040805192835260208301919091528051918290030190f35b60408051602060046024803582810135601f81018590048502860185019096528585526200019e95833560ff16953695604494919390910191908190840183828082843750949750620018c59650505050505050565b3480156200043957600080fd5b506040805160206004803580820135601f81018490048402850184019095528484526200019e9436949293602493928401919081908401838280828437509497505050833560ff1694505050602090910135905062001c7f565b348015620004a057600080fd5b506200012662002341565b348015620004b857600080fd5b506040805160206004803580820135601f810184900484028501840190955284845262000507943694929360249392840191908190840183828082843750949750620023479650505050505050565b604051808060200186600160a060020a0316600160a060020a031681526020018060200185600160a060020a0316600160a060020a0316815260200184151515158152602001838103835288818151815260200191508051906020019080838360005b83811015620005845781810151838201526020016200056a565b50505050905090810190601f168015620005b25780820380516001836020036101000a031916815260200191505b50838103825286518152865160209182019188019080838360005b83811015620005e7578181015183820152602001620005cd565b50505050905090810190601f168015620006155780820380516001836020036101000a031916815260200191505b5097505050505050505060405180910390f35b3480156200063557600080fd5b5062000643600435620026da565b604051808060200183600160a060020a0316600160a060020a03168152602001828103825284818151815260200191508051906020019080838360005b838110156200069a57818101518382015260200162000680565b50505050905090810190601f168015620006c85780820380516001836020036101000a031916815260200191505b50935050505060405180910390f35b348015620006e457600080fd5b506040805160206004803580820135601f81018490048402850184019095528484526200019e943694929360249392840191908190840183828082843750949750620028909650505050505050565b3480156200074057600080fd5b506040805160206004803580820135601f81018490048402850184019095528484526200019e94369492936024939284019190819084018382808284375094975062002d179650505050505050565b3480156200079c57600080fd5b506040805160206004803580820135601f81018490048402850184019095528484526200019e9436949293602493928401919081908401838280828437509497506200314e9650505050505050565b348015620007f857600080fd5b506040805160206004803580820135601f8101849004840285018401909552848452620000fa943694929360249392840191908190840183828082843750949750620033bd9650505050505050565b600160a060020a0390811660009081526002602052604090205416151590565b60065481565b60008054819060609060ff1615620008be576040805160e560020a62461bcd02815260206004820152600e6024820152600080516020620056ec833981519152604482015290519081900360640190fd5b6000805460ff1916600117905560068054106200094b576040805160e560020a62461bcd02815260206004820152602f60248201527f546f6f206d616e79206f6e676f696e672067616d65732e20506c65617365206360448201527f6f6d65206261636b206c61746572210000000000000000000000000000000000606482015290519081900360840190fd5b620009563362000847565b1515620009ad576040805160e560020a62461bcd02815260206004820152601560248201527f506c61796572206e6f7420726567697374657265640000000000000000000000604482015290519081900360640190fd5b620009b88462000847565b151562000a0f576040805160e560020a62461bcd02815260206004820152601560248201527f506c61796572206e6f7420726567697374657265640000000000000000000000604482015290519081900360640190fd5b6000341162000a68576040805160e560020a62461bcd02815260206004820152601a60248201527f506f736974697665207374616b65206973207265717569726564000000000000604482015290519081900360640190fd5b600060ff87161162000ac4576040805160e560020a62461bcd02815260206004820152601a60248201527f42616420726571756573742e2043686f6f73652061206d6f7665000000000000604482015290519081900360640190fd5b33600090815260026020908152604080832054815160e360020a630d9bee0f0281529151600394600160a060020a0390921693636cdf707893600480820194929392918390030190829087803b15801562000b1e57600080fd5b505af115801562000b33573d6000803e3d6000fd5b505050506040513d602081101562000b4a57600080fd5b50511062000bc8576040805160e560020a62461bcd02815260206004820152603560248201527f506c6179657220686173207265616368656420686973206d6178696d756d206e60448201527f756d626572206f66206163746976652067616d65730000000000000000000000606482015290519081900360840190fd5b600160a060020a03808516600090815260026020908152604080832054815160e360020a630d9bee0f02815291516003959190911693636cdf707893600480850194919392918390030190829087803b15801562000c2557600080fd5b505af115801562000c3a573d6000803e3d6000fd5b505050506040513d602081101562000c5157600080fd5b50511062000ccf576040805160e560020a62461bcd02815260206004820152603560248201527f506c6179657220686173207265616368656420686973206d6178696d756d206e60448201527f756d626572206f66206163746976652067616d65730000000000000000000000606482015290519081900360840190fd5b600160a060020a038085166000908152600260209081526040808320543384528184205482517f28859f3e00000000000000000000000000000000000000000000000000000000815260ff8d166004820152602481018c9052918616604483018190529251929850909416936328859f3e9360648083019493928390030190829087803b15801562000d6057600080fd5b505af115801562000d75573d6000803e3d6000fd5b505050506040513d602081101562000d8c57600080fd5b5051915062000d9b87620035c3565b905060a06040519081016040528083600160a060020a0316815260200182815260200133600160a060020a0316815260200185600160a060020a03168152602001348152506004600073__contracts/Utils.sol:Utils_____________635d26916a856040518263ffffffff1660e060020a0281526004018080602001828103825283818151815260200191508051906020019080838360005b8381101562000e5057818101518382015260200162000e36565b50505050905090810190601f16801562000e7e5780820380516001836020036101000a031916815260200191505b509250505060206040518083038186803b15801562000e9c57600080fd5b505af415801562000eb1573d6000803e3d6000fd5b505050506040513d602081101562000ec857600080fd5b5051815260208082019290925260400160002082518154600160a060020a031916600160a060020a03909116178155828201518051919262000f139260018501929091019062003e51565b5060408281015160028381018054600160a060020a0319908116600160a060020a0394851617909155606086015160038601805490921690841617905560809094015160049384015560068054600101905533600090815260209485528281205492517ffc992060000000000000000000000000000000000000000000000000000000008152938401858152865160248601528651939092169463fc99206094879484936044909201928601918190849084905b8381101562000fe157818101518382015260200162000fc7565b50505050905090810190601f1680156200100f5780820380516001836020036101000a031916815260200191505b5092505050600060405180830381600087803b1580156200102f57600080fd5b505af115801562001044573d6000803e3d6000fd5b50505050600160a060020a0384811660009081526002602090815260408083205490517ffc99206000000000000000000000000000000000000000000000000000000000815260048101838152865160248301528651929095169463fc99206094879491938493604401928601918190849084905b83811015620010d3578181015183820152602001620010b9565b50505050905090810190601f168015620011015780820380516001836020036101000a031916815260200191505b5092505050600060405180830381600087803b1580156200112157600080fd5b505af115801562001136573d6000803e3d6000fd5b5050505083600160a060020a031633600160a060020a03167f51d92102a2024fe7cc6a6a9f1c111a459e679a12ea42b52cd316e0831d9a8020836040518080602001828103825283818151815260200191508051906020019080838360005b83811015620011af57818101518382015260200162001195565b50505050905090810190601f168015620011dd5780820380516001836020036101000a031916815260200191505b509250505060405180910390a350506000805460ff191690555050505050565b60006200120a82620033bd565b151562001250576040805160e560020a62461bcd0281526020600482015260136024820152600080516020620056cc833981519152604482015290519081900360640190fd5b6004600073__contracts/Utils.sol:Utils_____________635d26916a856040518263ffffffff1660e060020a0281526004018080602001828103825283818151815260200191508051906020019080838360005b83811015620012c0578181015183820152602001620012a6565b50505050905090810190601f168015620012ee5780820380516001836020036101000a031916815260200191505b509250505060206040518083038186803b1580156200130c57600080fd5b505af415801562001321573d6000803e3d6000fd5b505050506040513d60208110156200133857600080fd5b5051815260208101919091526040016000206004015492915050565b336000908152600260205260408082205481517f3b8a0e4a000000000000000000000000000000000000000000000000000000008152915160609384938493600160a060020a031692633b8a0e4a9260048084019391929182900301818387803b158015620013c257600080fd5b505af1158015620013d7573d6000803e3d6000fd5b505050506040513d6000823e601f3d908101601f1916820160405260608110156200140157600080fd5b8101908080516401000000008111156200141a57600080fd5b820160208101848111156200142e57600080fd5b81516401000000008111828201871017156200144957600080fd5b505092919060200180516401000000008111156200146657600080fd5b820160208101848111156200147a57600080fd5b81516401000000008111828201871017156200149557600080fd5b50509291906020018051640100000000811115620014b257600080fd5b82016020810184811115620014c657600080fd5b8151640100000000811182820187101715620014e157600080fd5b509599949850965092945050505050565b60008054819060ff161562001540576040805160e560020a62461bcd02815260206004820152600e6024820152600080516020620056ec833981519152604482015290519081900360640190fd5b6000805460ff191660011790556200155883620033bd565b15156200159e576040805160e560020a62461bcd0281526020600482015260136024820152600080516020620056cc833981519152604482015290519081900360640190fd5b6004600073__contracts/Utils.sol:Utils_____________635d26916a866040518263ffffffff1660e060020a0281526004018080602001828103825283818151815260200191508051906020019080838360005b838110156200160e578181015183820152602001620015f4565b50505050905090810190601f1680156200163c5780820380516001836020036101000a031916815260200191505b509250505060206040518083038186803b1580156200165a57600080fd5b505af41580156200166f573d6000803e3d6000fd5b505050506040513d60208110156200168657600080fd5b50518152602081810192909252604090810160009081205482517f89f71d530000000000000000000000000000000000000000000000000000000081529251600160a060020a03909116936389f71d5393600480820194929392918390030190829087803b158015620016f857600080fd5b505af11580156200170d573d6000803e3d6000fd5b505050506040513d60208110156200172457600080fd5b505160405160e160020a632e9348b502815260206004828101828152875160248501528751919360009373__contracts/Utils.sol:Utils_____________93635d26916a938b9390928392604490920191908501908083838b5b83811015620017995781810151838201526020016200177f565b50505050905090810190601f168015620017c75780820380516001836020036101000a031916815260200191505b509250505060206040518083038186803b158015620017e557600080fd5b505af4158015620017fa573d6000803e3d6000fd5b505050506040513d60208110156200181157600080fd5b50518152602081810192909252604090810160009081205482517ff56f48f20000000000000000000000000000000000000000000000000000000081529251600160a060020a039091169363f56f48f293600480820194929392918390030190829087803b1580156200188357600080fd5b505af115801562001898573d6000803e3d6000fd5b505050506040513d6020811015620018af57600080fd5b50516000805460ff191690559094909350915050565b60008054819060ff161562001913576040805160e560020a62461bcd02815260206004820152600e6024820152600080516020620056ec833981519152604482015290519081900360640190fd5b6000805460ff191660011790556200192b83620033bd565b151562001971576040805160e560020a62461bcd0281526020600482015260136024820152600080516020620056cc833981519152604482015290519081900360640190fd5b60405160e160020a632e9348b502815260206004820181815285516024840152855173__contracts/Utils.sol:Utils_____________93635d26916a9388939283926044019185019080838360005b83811015620019db578181015183820152602001620019c1565b50505050905090810190601f16801562001a095780820380516001836020036101000a031916815260200191505b509250505060206040518083038186803b15801562001a2757600080fd5b505af415801562001a3c573d6000803e3d6000fd5b505050506040513d602081101562001a5357600080fd5b5051600081815260046020526040902060030154909250600160a060020a0316331462001af0576040805160e560020a62461bcd02815260206004820152603860248201527f52657175657374696e6720706c61796572206973206e6f74207468652073656360448201527f6f6e6420706c61796572206f6620746869732067616d65210000000000000000606482015290519081900360840190fd5b60008281526004602081815260408084206003810154600160a060020a039081168652600284528286205495889052928490525490517fbca7437b000000000000000000000000000000000000000000000000000000008152908216928101838152939091169263bca7437b929188919060240182600581111562001b7157fe5b60ff16815260200192505050600060405180830381600087803b15801562001b9857600080fd5b505af115801562001bad573d6000803e3d6000fd5b50505060008381526004602090815260408083206002015481518381528851818501528851600160a060020a03909216965033955086947f7570938286d9f6c0999800d0b2f89e02149ff3872cd10eb5836c99268035c1b0948a9492938493840192918601918190849084905b8381101562001c3457818101518382015260200162001c1a565b50505050905090810190601f16801562001c625780820380516001836020036101000a031916815260200191505b509250505060405180910390a350506000805460ff191690555050565b6000805481908190819081908190819060ff161562001cd7576040805160e560020a62461bcd02815260206004820152600e6024820152600080516020620056ec833981519152604482015290519081900360640190fd5b6000805460ff1916600117905562001cef8a620033bd565b151562001d35576040805160e560020a62461bcd0281526020600482015260136024820152600080516020620056cc833981519152604482015290519081900360640190fd5b60405160e160020a632e9348b50281526020600482018181528c5160248401528c5173__contracts/Utils.sol:Utils_____________93635d26916a938f939283926044019185019080838360005b8381101562001d9f57818101518382015260200162001d85565b50505050905090810190601f16801562001dcd5780820380516001836020036101000a031916815260200191505b509250505060206040518083038186803b15801562001deb57600080fd5b505af415801562001e00573d6000803e3d6000fd5b505050506040513d602081101562001e1757600080fd5b5051600081815260046020526040902060020154909750600160a060020a0316331462001eb4576040805160e560020a62461bcd02815260206004820152603760248201527f52657175657374696e6720706c61796572206973206e6f74207468652066697260448201527f737420706c61796572206f6620746869732067616d6521000000000000000000606482015290519081900360840190fd5b600087815260046020818152604080842080840154600280830154600160a060020a03908116885290855283872054968e905293859052905491517ffd0b8e95000000000000000000000000000000000000000000000000000000008152918316938201848152909a50939091169263fd0b8e9592918d918d9160240183600581111562001f3e57fe5b60ff1681526020018281526020019350505050600060405180830381600087803b15801562001f6c57600080fd5b505af115801562001f81573d6000803e3d6000fd5b50505060008881526004602081815260408084206003810154905482517f48e257cb0000000000000000000000000000000000000000000000000000000081529251600160a060020a039283169c50911695506348e257cb9482850194919283900390910190829087803b15801562001ff957600080fd5b505af11580156200200e573d6000803e3d6000fd5b505050506040513d60208110156200202557600080fd5b50516000888152600460208190526040918290205491517f0c4395b9000000000000000000000000000000000000000000000000000000008152929650600160a060020a0390911691630c4395b9918c91889101808360058111156200208757fe5b60ff1681526020018260058111156200209c57fe5b60ff16815260200192505050602060405180830381600087803b158015620020c357600080fd5b505af1158015620020d8573d6000803e3d6000fd5b505050506040513d6020811015620020ef57600080fd5b50516000888152600460208190526040918290205491517f0c4395b9000000000000000000000000000000000000000000000000000000008152929550600160a060020a0390911691630c4395b99187918d9101808360058111156200215157fe5b60ff1681526020018260058111156200216657fe5b60ff16815260200192505050602060405180830381600087803b1580156200218d57600080fd5b505af1158015620021a2573d6000803e3d6000fd5b505050506040513d6020811015620021b957600080fd5b505191508215620021ec5760405133906002880280156108fc02916000818181858888f193505050505033905062002266565b81156200222457604051600160a060020a038616906002880280156108fc02916000818181858888f193505050505084905062002266565b604051339087156108fc029088906000818181858888f15050604051600160a060020a038916935089156108fc0292508991506000818181858888f150505050505b620022718a6200371b565b80600160a060020a031685600160a060020a031633600160a060020a03167f3731533340919cfa7cbd6d0561bcb6824cf3b12bb3fb490c8d3bae4b508954358d6040518080602001828103825283818151815260200191508051906020019080838360005b83811015620022f0578181015183820152602001620022d6565b50505050905090810190601f1680156200231e5780820380516001836020036101000a031916815260200191505b509250505060405180910390a450506000805460ff191690555050505050505050565b60055481565b60606000606060008060006200235d87620033bd565b1515620023a3576040805160e560020a62461bcd0281526020600482015260136024820152600080516020620056cc833981519152604482015290519081900360640190fd5b60405160e160020a632e9348b502815260206004820181815289516024840152895173__contracts/Utils.sol:Utils_____________93635d26916a938c939283926044019185019080838360005b838110156200240d578181015183820152602001620023f3565b50505050905090810190601f1680156200243b5780820380516001836020036101000a031916815260200191505b509250505060206040518083038186803b1580156200245957600080fd5b505af41580156200246e573d6000803e3d6000fd5b505050506040513d60208110156200248557600080fd5b50516000818152600460208181526040808420600290810154600160a060020a03908116865292528084205481517f77508b4b0000000000000000000000000000000000000000000000000000000081529151959650909116936377508b4b9382840193909282900301818387803b1580156200250157600080fd5b505af115801562002516573d6000803e3d6000fd5b505050506040513d6000823e601f3d908101601f1916820160405260208110156200254057600080fd5b8101908080516401000000008111156200255957600080fd5b820160208101848111156200256d57600080fd5b81516401000000008111828201871017156200258857600080fd5b50506000858152600460208181526040808420600280820154600390920154600160a060020a03908116875293528185205482517f77508b4b0000000000000000000000000000000000000000000000000000000081529251969950908316975090911694506377508b4b938183019392909182900301818387803b1580156200261157600080fd5b505af115801562002626573d6000803e3d6000fd5b505050506040513d6000823e601f3d908101601f1916820160405260208110156200265057600080fd5b8101908080516401000000008111156200266957600080fd5b820160208101848111156200267d57600080fd5b81516401000000008111828201871017156200269857600080fd5b5050600087815260046020526040902060030154909350600160a060020a03169150620026c790508b620039a6565b939b929a50909850965090945092505050565b6060600082600011158015620026f1575060055483105b15156200276e576040805160e560020a62461bcd02815260206004820152602560248201527f42616420726571756573742120496e646578206f7574206f6620626f756e646160448201527f726965732e000000000000000000000000000000000000000000000000000000606482015290519081900360840190fd5b600083815260036020908152604080832054600160a060020a03908116845260029092528083205481517f77508b4b00000000000000000000000000000000000000000000000000000000815291519216926377508b4b9260048084019382900301818387803b158015620027e257600080fd5b505af1158015620027f7573d6000803e3d6000fd5b505050506040513d6000823e601f3d908101601f1916820160405260208110156200282157600080fd5b8101908080516401000000008111156200283a57600080fd5b820160208101848111156200284e57600080fd5b81516401000000008111828201871017156200286957600080fd5b5050600087815260036020526040902054909550600160a060020a03169350505050915091565b6000805481908190819060ff1615620028e2576040805160e560020a62461bcd02815260206004820152600e6024820152600080516020620056ec833981519152604482015290519081900360640190fd5b6000805460ff19166001179055620028fa85620033bd565b151562002940576040805160e560020a62461bcd0281526020600482015260136024820152600080516020620056cc833981519152604482015290519081900360640190fd5b60405160e160020a632e9348b502815260206004820181815287516024840152875173__contracts/Utils.sol:Utils_____________93635d26916a938a939283926044019185019080838360005b83811015620029aa57818101518382015260200162002990565b50505050905090810190601f168015620029d85780820380516001836020036101000a031916815260200191505b509250505060206040518083038186803b158015620029f657600080fd5b505af415801562002a0b573d6000803e3d6000fd5b505050506040513d602081101562002a2257600080fd5b5051600081815260046020526040902060030154909450600160a060020a0316925033831462002ac2576040805160e560020a62461bcd02815260206004820152603860248201527f52657175657374696e6720706c61796572206973206e6f74207468652073656360448201527f6f6e6420706c61796572206f6620746869732067616d65210000000000000000606482015290519081900360840190fd5b6000848152600460208181526040808420808401546003820154600160a060020a03908116875260028552838720548b885294869052915483517f966abba7000000000000000000000000000000000000000000000000000000008152908316958101959095529151919650919091169263966abba7926024808201939182900301818387803b15801562002b5657600080fd5b505af115801562002b6b573d6000803e3d6000fd5b5050604051600160a060020a03861692506002850280156108fc029250906000818181858888f1505050600086815260046020526040902060020154600160a060020a0316925062002bc191508690506200371b565b600160a060020a03808216600090815260026020908152604080832054815160e360020a630d9bee0f0281529151941693636cdf707893600480840194938390030190829087803b15801562002c1657600080fd5b505af115801562002c2b573d6000803e3d6000fd5b505050506040513d602081101562002c4257600080fd5b5051151562002c565762002c568162003ba4565b82600160a060020a031681600160a060020a03167fead18f13f24452b7a4852893f3cefec7106355b1e992462a8f90803d4898dda8876040518080602001828103825283818151815260200191508051906020019080838360005b8381101562002ccb57818101518382015260200162002cb1565b50505050905090810190601f16801562002cf95780820380516001836020036101000a031916815260200191505b509250505060405180910390a350506000805460ff19169055505050565b6000805481908190819060ff161562002d69576040805160e560020a62461bcd02815260206004820152600e6024820152600080516020620056ec833981519152604482015290519081900360640190fd5b6000805460ff1916600117905562002d8185620033bd565b151562002dc7576040805160e560020a62461bcd0281526020600482015260136024820152600080516020620056cc833981519152604482015290519081900360640190fd5b60405160e160020a632e9348b502815260206004820181815287516024840152875173__contracts/Utils.sol:Utils_____________93635d26916a938a939283926044019185019080838360005b8381101562002e3157818101518382015260200162002e17565b50505050905090810190601f16801562002e5f5780820380516001836020036101000a031916815260200191505b509250505060206040518083038186803b15801562002e7d57600080fd5b505af415801562002e92573d6000803e3d6000fd5b505050506040513d602081101562002ea957600080fd5b5051600081815260046020526040902060020154909450600160a060020a0316925033831462002f49576040805160e560020a62461bcd02815260206004820152603760248201527f52657175657374696e6720706c61796572206973206e6f74207468652066697260448201527f737420706c61796572206f6620746869732067616d6521000000000000000000606482015290519081900360840190fd5b600084815260046020818152604080842080840154600280830154600160a060020a039081168852908552838720548b885294869052915483517fae4800ff000000000000000000000000000000000000000000000000000000008152908316958101959095529151919650919091169263ae4800ff926024808201939182900301818387803b15801562002fdd57600080fd5b505af115801562002ff2573d6000803e3d6000fd5b5050604051600160a060020a038616925084156108fc02915084906000818181858888f1505050600086815260046020526040902060030154600160a060020a031692506200304591508690506200371b565b600160a060020a03808216600090815260026020908152604080832054815160e360020a630d9bee0f0281529151941693636cdf707893600480840194938390030190829087803b1580156200309a57600080fd5b505af1158015620030af573d6000803e3d6000fd5b505050506040513d6020811015620030c657600080fd5b50511515620030da57620030da8162003ba4565b80600160a060020a031633600160a060020a03167f8e9c0f891fe08a324ebb4d8a8786825b21104fe88169db8a1efd5a8662df978a876040518080602001828103825283818151815260200191508051906020019080838360008381101562002ccb57818101518382015260200162002cb1565b600554600411620031cf576040805160e560020a62461bcd02815260206004820152603460248201527f546f6f206d616e79207265676973746572656420706c61796572732e20506c6560448201527f61736520636f6d65206261636b206c6174657221000000000000000000000000606482015290519081900360840190fd5b620031da3362000847565b1562003230576040805160e560020a62461bcd02815260206004820152601960248201527f506c6179657220616c7265616479207265676973746572656400000000000000604482015290519081900360640190fd5b806005546200323e62003ed6565b602080820183905260408083528451908301528351829160608301919086019080838360005b838110156200327e57818101518382015260200162003264565b50505050905090810190601f168015620032ac5780820380516001836020036101000a031916815260200191505b509350505050604051809103906000f080158015620032cf573d6000803e3d6000fd5b503360008181526002602090815260408083208054600160a060020a0396909616600160a060020a0319968716179055600580548452600383528184208054909616851790955584546001019094558351818152855181830152855193947f81ef79d1cda814a60c0fc60792e648a06d9c6bae67176346d1cc8b63030bfccd948794929384939284019290860191908190849084905b838110156200337f57818101518382015260200162003365565b50505050905090810190601f168015620033ad5780820380516001836020036101000a031916815260200191505b509250505060405180910390a250565b60008073__contracts/Utils.sol:Utils_____________635d26916a846040518263ffffffff1660e060020a0281526004018080602001828103825283818151815260200191508051906020019080838360005b838110156200342c57818101518382015260200162003412565b50505050905090810190601f1680156200345a5780820380516001836020036101000a031916815260200191505b509250505060206040518083038186803b1580156200347857600080fd5b505af41580156200348d573d6000803e3d6000fd5b505050506040513d6020811015620034a457600080fd5b5051600081815260046020818152604092839020925160e160020a632e9348b5028152918201908152600192830180546002610100958216159590950260001901169390930460248301819052939450849373__contracts/Utils.sol:Utils_____________93635d26916a93909291829160440190849080156200356e5780601f1062003542576101008083540402835291602001916200356e565b820191906000526020600020905b8154815290600101906020018083116200355057829003601f168201915b50509250505060206040518083038186803b1580156200358d57600080fd5b505af4158015620035a2573d6000803e3d6000fd5b505050506040513d6020811015620035b957600080fd5b5051149392505050565b606081620035d181620033bd565b156200366b57826040516020018082805190602001908083835b602083106200360c5780518252601f199092019160209182019101620035eb565b6001836020036101000a038019825116818451168082178552505050505050905001807f2d7632000000000000000000000000000000000000000000000000000000000081525060030191505060405160208183030381529060405290505b6200367681620033bd565b156200371557806040516020018082805190602001908083835b60208310620036b15780518252601f19909201916020918201910162003690565b6001836020036101000a038019825116818451168082178552505050505050905001807f2e3100000000000000000000000000000000000000000000000000000000000081525060020191505060405160208183030381529060405290506200366b565b92915050565b600080600073__contracts/Utils.sol:Utils_____________635d26916a856040518263ffffffff1660e060020a0281526004018080602001828103825283818151815260200191508051906020019080838360005b838110156200378c57818101518382015260200162003772565b50505050905090810190601f168015620037ba5780820380516001836020036101000a031916815260200191505b509250505060206040518083038186803b158015620037d857600080fd5b505af4158015620037ed573d6000803e3d6000fd5b505050506040513d60208110156200380457600080fd5b50516000818152600460208181526040808420600290810154600160a060020a03908116808752919093528185205482517f9690be37000000000000000000000000000000000000000000000000000000008152948501879052915195985096501692639690be379260248084019391929182900301818387803b1580156200388c57600080fd5b505af1158015620038a1573d6000803e3d6000fd5b505050600084815260046020818152604080842060030154600160a060020a0390811680865260029093528185205482517f9690be370000000000000000000000000000000000000000000000000000000081529485018a90529151929650169350639690be379260248084019391929182900301818387803b1580156200392857600080fd5b505af11580156200393d573d6000803e3d6000fd5b50505060008481526004602052604081208054600160a060020a031916815591506200396d600183018262003ee7565b50600281018054600160a060020a0319908116909155600382018054909116905560006004909101555050600680546000190190555050565b6000805460ff1615620039f2576040805160e560020a62461bcd02815260206004820152600e6024820152600080516020620056ec833981519152604482015290519081900360640190fd5b6000805460ff191660011781556004600073__contracts/Utils.sol:Utils_____________635d26916a866040518263ffffffff1660e060020a0281526004018080602001828103825283818151815260200191508051906020019080838360005b8381101562003a6f57818101518382015260200162003a55565b50505050905090810190601f16801562003a9d5780820380516001836020036101000a031916815260200191505b509250505060206040518083038186803b15801562003abb57600080fd5b505af415801562003ad0573d6000803e3d6000fd5b505050506040513d602081101562003ae757600080fd5b50518152602081810192909252604090810160009081205482517f48e257cb0000000000000000000000000000000000000000000000000000000081529251600160a060020a03909116936348e257cb93600480820194929392918390030190829087803b15801562003b5957600080fd5b505af115801562003b6e573d6000803e3d6000fd5b505050506040513d602081101562003b8557600080fd5b5051600581111562003b9357fe5b6000805460ff191690551492915050565b600160a060020a03808216600090815260026020908152604080832054815160e360020a630d9bee0f028152915193941692636cdf70789260048084019391929182900301818787803b15801562003bfb57600080fd5b505af115801562003c10573d6000803e3d6000fd5b505050506040513d602081101562003c2757600080fd5b50511562003c7f576040805160e560020a62461bcd02815260206004820152601760248201527f506c6179657220686173206163746976652067616d6573000000000000000000604482015290519081900360640190fd5b600160a060020a0380831660009081526002602090815260408083205481517f4d7a34440000000000000000000000000000000000000000000000000000000081529151941693634d7a344493600480840194938390030190829087803b15801562003cea57600080fd5b505af115801562003cff573d6000803e3d6000fd5b505050506040513d602081101562003d1657600080fd5b505160055490915060001901811462003dfe5760055460001901600090815260036020908152604080832054600160a060020a03908116845260029092528083205481517fdb21507b00000000000000000000000000000000000000000000000000000000815260048101869052915192169263db21507b9260248084019382900301818387803b15801562003dab57600080fd5b505af115801562003dc0573d6000803e3d6000fd5b5050600554600019016000908152600360205260408082205485835291208054600160a060020a031916600160a060020a0390921691909117905550505b506005805460001990810160009081526003602090815260408083208054600160a060020a0319908116909155600160a060020a0396909616835260029091529020805490931690925580549091019055565b828054600181600116156101000203166002900490600052602060002090601f016020900481019282601f1062003e9457805160ff191683800117855562003ec4565b8280016001018555821562003ec4579182015b8281111562003ec457825182559160200191906001019062003ea7565b5062003ed292915062003f32565b5090565b6040516117798062003f5383390190565b50805460018160011615610100020316600290046000825580601f1062003f0f575062003f2f565b601f01602090049060005260206000209081019062003f2f919062003f32565b50565b62003f4f91905b8082111562003ed2576000815560010162003f39565b905600608060405234801561001057600080fd5b5060405161177938038061177983398101604052805160208083015191909201805190926100439160019185019061004d565b50600655506100e8565b828054600181600116156101000203166002900490600052602060002090601f016020900481019282601f1061008e57805160ff19168380011785556100bb565b828001600101855582156100bb579182015b828111156100bb5782518255916020019190600101906100a0565b506100c79291506100cb565b5090565b6100e591905b808211156100c757600081556001016100d1565b90565b611682806100f76000396000f3006080604052600436106100ab5763ffffffff60e060020a60003504166328859f3e81146100b05780633b8a0e4a146100e95780634d7a3444146102425780636cdf70781461026957806377508b4b1461027e578063827a821914610308578063966abba7146103205780639690be3714610343578063ae4800ff1461035b578063bca7437b1461037c578063db21507b14610396578063fc992060146103ae578063fd0b8e9514610407575b600080fd5b6100cd60ff60043516602435600160a060020a0360443516610431565b60408051600160a060020a039092168252519081900360200190f35b3480156100f557600080fd5b506100fe610527565b60405180806020018060200180602001848103845287818151815260200191508051906020019080838360005b8381101561014357818101518382015260200161012b565b50505050905090810190601f1680156101705780820380516001836020036101000a031916815260200191505b50848103835286518152865160209182019188019080838360005b838110156101a357818101518382015260200161018b565b50505050905090810190601f1680156101d05780820380516001836020036101000a031916815260200191505b50848103825285518152855160209182019187019080838360005b838110156102035781810151838201526020016101eb565b50505050905090810190601f1680156102305780820380516001836020036101000a031916815260200191505b50965050505050505060405180910390f35b34801561024e57600080fd5b506102576106e8565b60408051918252519081900360200190f35b34801561027557600080fd5b506102576106ee565b34801561028a57600080fd5b506102936106f4565b6040805160208082528351818301528351919283929083019185019080838360005b838110156102cd5781810151838201526020016102b5565b50505050905090810190601f1680156102fa5780820380516001836020036101000a031916815260200191505b509250505060405180910390f35b34801561031457600080fd5b50610293600435610781565b34801561032c57600080fd5b50610341600160a060020a03600435166107e9565b005b34801561034f57600080fd5b50610341600435610842565b34801561036757600080fd5b50610341600160a060020a0360043516610c03565b610341600160a060020a036004351660ff60243516610c41565b3480156103a257600080fd5b50610341600435610ccb565b3480156103ba57600080fd5b506040805160206004803580820135601f8101849004840285018401909552848452610341943694929360249392840191908190840183828082843750949750610cd09650505050505050565b34801561041357600080fd5b50610341600160a060020a036004351660ff60243516604435610d03565b600080600061043e610d7f565b604051809103906000f08015801561045a573d6000803e3d6000fd5b50915081600160a060020a03166367ef4c1387876040518363ffffffff1660e060020a028152600401808360ff1660ff16815260200182815260200192505050602060405180830381600087803b1580156104b457600080fd5b505af11580156104c8573d6000803e3d6000fd5b505050506040513d60208110156104de57600080fd5b5051905080846104ec610d8e565b918252600160a060020a03166020820152604080519182900301906000f08015801561051c573d6000803e3d6000fd5b509695505050505050565b60028054604080516020601f6000196101006001871615020190941685900493840181900481028201810190925282815260609384938493919260039260049285918301828280156105ba5780601f1061058f576101008083540402835291602001916105ba565b820191906000526020600020905b81548152906001019060200180831161059d57829003601f168201915b5050855460408051602060026001851615610100026000190190941693909304601f8101849004840282018401909252818152959850879450925084019050828280156106485780601f1061061d57610100808354040283529160200191610648565b820191906000526020600020905b81548152906001019060200180831161062b57829003601f168201915b5050845460408051602060026001851615610100026000190190941693909304601f8101849004840282018401909252818152959750869450925084019050828280156106d65780601f106106ab576101008083540402835291602001916106d6565b820191906000526020600020905b8154815290600101906020018083116106b957829003601f168201915b50505050509050925092509250909192565b60065481565b60055481565b60018054604080516020600284861615610100026000190190941693909304601f810184900484028201840190925281815292918301828280156107795780601f1061074e57610100808354040283529160200191610779565b820191906000526020600020905b81548152906001019060200180831161075c57829003601f168201915b505050505081565b6002816003811061078e57fe5b018054604080516020601f6002600019610100600188161502019095169490940493840181900481028201810190925282815293508301828280156107795780601f1061074e57610100808354040283529160200191610779565b80600160a060020a031663c83911426040518163ffffffff1660e060020a028152600401600060405180830381600087803b15801561082757600080fd5b505af115801561083b573d6000803e3d6000fd5b5050505050565b60058054600019019081905560008273__contracts/Utils.sol:Utils_____________635d26916a6002856003811061087857fe5b60405163ffffffff841660e060020a0281526020600482019081529190920180546002600182161561010002600019019091160460248401819052909282916044909101908490801561090c5780601f106108e15761010080835404028352916020019161090c565b820191906000526020600020905b8154815290600101906020018083116108ef57829003601f168201915b50509250505060206040518083038186803b15801561092a57600080fd5b505af415801561093e573d6000803e3d6000fd5b505050506040513d602081101561095457600080fd5b505114610bca578273__contracts/Utils.sol:Utils_____________635d26916a600260001986016003811061098757fe5b60405163ffffffff841660e060020a02815260206004820190815291909201805460026001821615610100026000190190911604602484018190529092829160449091019084908015610a1b5780601f106109f057610100808354040283529160200191610a1b565b820191906000526020600020905b8154815290600101906020018083116109fe57829003601f168201915b50509250505060206040518083038186803b158015610a3957600080fd5b505af4158015610a4d573d6000803e3d6000fd5b505050506040513d6020811015610a6357600080fd5b50511415610a7657506000198101610b8d565b8273__contracts/Utils.sol:Utils_____________635d26916a6002600119860160038110610aa257fe5b60405163ffffffff841660e060020a02815260206004820190815291909201805460026001821615610100026000190190911604602484018190529092829160449091019084908015610b365780601f10610b0b57610100808354040283529160200191610b36565b820191906000526020600020905b815481529060010190602001808311610b1957829003601f168201915b50509250505060206040518083038186803b158015610b5457600080fd5b505af4158015610b68573d6000803e3d6000fd5b505050506040513d6020811015610b7e57600080fd5b50511415610b8d575060011981015b60028260038110610b9a57fe5b0160028260038110610ba857fe5b019080546001816001161561010002031660029004610bc8929190610d9e565b505b60408051602081019091526000815260055460029060038110610be957fe5b019080519060200190610bfd929190610e23565b50505050565b80600160a060020a031663294914a46040518163ffffffff1660e060020a028152600401600060405180830381600087803b15801561082757600080fd5b6040517f53a04b05000000000000000000000000000000000000000000000000000000008152600160a060020a038316906353a04b0590839060040180826005811115610c8a57fe5b60ff168152602001915050600060405180830381600087803b158015610caf57600080fd5b505af1158015610cc3573d6000803e3d6000fd5b505050505050565b600655565b806002600554600381101515610ce257fe5b019080519060200190610cf6929190610e23565b5050600580546001019055565b82600160a060020a031663a5ddec7c83836040518363ffffffff1660e060020a02815260040180836005811115610d3657fe5b60ff16815260200182815260200192505050600060405180830381600087803b158015610d6257600080fd5b505af1158015610d76573d6000803e3d6000fd5b50505050505050565b60405160fe80610eaf83390190565b6040516106aa80610fad83390190565b828054600181600116156101000203166002900490600052602060002090601f016020900481019282601f10610dd75780548555610e13565b82800160010185558215610e1357600052602060002091601f016020900482015b82811115610e13578254825591600101919060010190610df8565b50610e1f929150610e91565b5090565b828054600181600116156101000203166002900490600052602060002090601f016020900481019282601f10610e6457805160ff1916838001178555610e13565b82800160010185558215610e13579182015b82811115610e13578251825591602001919060010190610e76565b610eab91905b80821115610e1f5760008155600101610e97565b9056006080604052348015600f57600080fd5b5060e08061001e6000396000f300608060405260043610603e5763ffffffff7c010000000000000000000000000000000000000000000000000000000060003504166367ef4c1381146043575b600080fd5b348015604e57600080fd5b50605e60ff600435166024356070565b60408051918252519081900360200190f35b604080517f010000000000000000000000000000000000000000000000000000000000000060ff8516028152600181018390529051908190036021019020929150505600a165627a7a72305820260eb3b8bf43dcdd16dbc3c724258139f0a95cab94f7eedf05604e437c7e3aaf00296080604081815261012c600555806106aa8339810160405280516020909101513460045560008054600160a060020a0319908116331790915560018054600160a060020a039093169290911691909117905560025542600655610643806100676000396000f3006080604052600436106100b95763ffffffff7c01000000000000000000000000000000000000000000000000000000006000350416630c4395b981146100be578063294914a4146100f35780633a4b66f11461010a57806348e257cb146101315780634d03e3d21461016a57806353a04b051461017f57806380985af91461018d57806389f71d53146101be578063a5ddec7c146101d3578063c37597c6146101f1578063c839114214610206578063f56f48f21461021b575b600080fd5b3480156100ca57600080fd5b506100df60ff60043581169060243516610230565b604080519115158252519081900360200190f35b3480156100ff57600080fd5b506101086102ec565b005b34801561011657600080fd5b5061011f61034c565b60408051918252519081900360200190f35b34801561013d57600080fd5b50610146610352565b6040518082600581111561015657fe5b60ff16815260200191505060405180910390f35b34801561017657600080fd5b5061011f61035b565b61010860ff60043516610361565b34801561019957600080fd5b506101a26103e1565b60408051600160a060020a039092168252519081900360200190f35b3480156101ca57600080fd5b5061011f6103f0565b3480156101df57600080fd5b5061010860ff600435166024356103f6565b3480156101fd57600080fd5b506101a261059c565b34801561021257600080fd5b506101086105ab565b34801561022757600080fd5b5061011f610611565b600081600581111561023e57fe5b83600581111561024a57fe5b1415610258575060006102e6565b600083600581111561026657fe5b1415610274575060006102e6565b600282600581111561028257fe5b81151561028b57fe5b06600284600581111561029a57fe5b8115156102a357fe5b0614156102ca578160058111156102b657fe5b8360058111156102c257fe5b1090506102e6565b8160058111156102d657fe5b8360058111156102e257fe5b1190505b92915050565b600060035460ff1660058111156102ff57fe5b1461030957600080fd5b60055460065401421161031b57600080fd5b60008054600454604051600160a060020a039092169281156108fc029290818181858888f150506000600455505050565b60045481565b60035460ff1681565b60025481565b600060035460ff16600581111561037457fe5b1461037e57600080fd5b600081600581111561038c57fe5b141561039757600080fd5b60045434146103a557600080fd5b600154600160a060020a031633146103bc57600080fd5b6003805482919060ff191660018360058111156103d557fe5b02179055505042600655565b600154600160a060020a031681565b60065481565b600082600581111561040457fe5b141561040f57600080fd5b600060035460ff16600581111561042257fe5b141561042d57600080fd5b600054600160a060020a0316331461044457600080fd5b600254604051839083908083600581111561045b57fe5b60ff167f0100000000000000000000000000000000000000000000000000000000000000028152600101828152602001925050506040518091039020600019161415156104a757600080fd5b6003546104b890839060ff16610230565b156104f35760008054600454604051600160a060020a0390921692600290910280156108fc02929091818181858888f1935050505050610593565b6003546105039060ff1683610230565b1561053d57600154600454604051600160a060020a0390921691600290910280156108fc02916000818181858888f1935050505050610593565b60008054600454604051600160a060020a039092169281156108fc029290818181858888f15050600154600454604051600160a060020a03909216945080156108fc02935091506000818181858888f150505050505b50506000600455565b600054600160a060020a031681565b600060035460ff1660058111156105be57fe5b14156105c957600080fd5b6005546006540142116105db57600080fd5b600154600454604051600160a060020a0390921691600290910280156108fc02916000818181858888f150506000600455505050565b600554815600a165627a7a72305820fe1451ba5e9be5198ea81766ec0c5f32b5ab03b6e47b6ff4c2fd05c1940f4dc60029a165627a7a7230582015f8c15393855ed5e309fb3883f86b8bb30490c2cdb5e47af645db545cc46201002947616d6520646f65736e277420657869737421000000000000000000000000004e6f2072652d656e7472616e6379000000000000000000000000000000000000a165627a7a72305820bb188c3e2bd0886cd5fd01ba9736b1fdd93a48bd959626354f8d012ddbffd2320029",
  "linkReferences": {
    "contracts/Utils.sol": {
      "Utils": [
        {
          "length": 20,
          "start": 3630
        },
        {
          "length": 20,
          "start": 4766
        },
        {
          "length": 20,
          "start": 5612
        },
        {
          "length": 20,
          "start": 6040
        },
        {
          "length": 20,
          "start": 6621
        },
        {
          "length": 20,
          "start": 7585
        },
        {
          "length": 20,
          "start": 9231
        },
        {
          "length": 20,
          "start": 10668
        },
        {
          "length": 20,
          "start": 11827
        },
        {
          "length": 20,
          "start": 13322
        },
        {
          "length": 20,
          "start": 13632
        },
        {
          "length": 20,
          "start": 14186
        },
        {
          "length": 20,
          "start": 14925
        },
        {
          "length": 20,
          "start": 18661
        },
        {
          "length": 20,
          "start": 18928
        },
        {
          "length": 20,
          "start": 19211
        }
      ]
    }
  },
  "deployedLinkReferences": {
    "contracts/Utils.sol": {
      "Utils": [
        {
          "length": 20,
          "start": 3558
        },
        {
          "length": 20,
          "start": 4694
        },
        {
          "length": 20,
          "start": 5540
        },
        {
          "length": 20,
          "start": 5968
        },
        {
          "length": 20,
          "start": 6549
        },
        {
          "length": 20,
          "start": 7513
        },
        {
          "length": 20,
          "start": 9159
        },
        {
          "length": 20,
          "start": 10596
        },
        {
          "length": 20,
          "start": 11755
        },
        {
          "length": 20,
          "start": 13250
        },
        {
          "length": 20,
          "start": 13560
        },
        {
          "length": 20,
          "start": 14114
        },
        {
          "length": 20,
          "start": 14853
        },
        {
          "length": 20,
          "start": 18589
        },
        {
          "length": 20,
          "start": 18856
        },
        {
          "length": 20,
          "start": 19139
        }
      ]
    }
  }
}