{
  "_format": "hh-sol-artifact-1",
  "contractName": "ContractsHandler",
  "sourceName": "contracts/ContractsHandler.sol",
  "abi": [
    {
      "constant": true,
      "inputs": [
        {
          "name": "addr",
          "type": "address"
        }
      ],
      "name": "isPlayer",
      "outputs": [
        {
          "name": "",
          "type": "bool"
        }
      ],
      "payable": false,
      "stateMutability": "view",
      "type": "function"
    },
    {
      "constant": true,
      "inputs": [],
      "name": "gamesLen",
      "outputs": [
        {
          "name": "",
          "type": "uint256"
        }
      ],
      "payable": false,
      "stateMutability": "view",
      "type": "function"
    },
    {
      "constant": false,
      "inputs": [
        {
          "name": "_name",
          "type": "string"
        },
        {
          "name": "_c",
          "type": "uint8"
        },
        {
          "name": "_salt",
          "type": "uint256"
        },
        {
          "name": "_j2Address",
          "type": "address"
        }
      ],
      "name": "createGame",
      "outputs": [],
      "payable": true,
      "stateMutability": "payable",
      "type": "function"
    },
    {
      "constant": true,
      "inputs": [
        {
          "name": "_gameName",
          "type": "string"
        }
      ],
      "name": "getGameStake",
      "outputs": [
        {
          "name": "",
          "type": "uint256"
        }
      ],
      "payable": false,
      "stateMutability": "view",
      "type": "function"
    },
    {
      "constant": true,
      "inputs": [],
      "name": "getGamesPlayer",
      "outputs": [
        {
          "name": "",
          "type": "string"
        },
        {
          "name": "",
          "type": "string"
        },
        {
          "name": "",
          "type": "string"
        }
      ],
      "payable": false,
      "stateMutability": "view",
      "type": "function"
    },
    {
      "constant": true,
      "inputs": [
        {
          "name": "_gameName",
          "type": "string"
        }
      ],
      "name": "getGameTimeData",
      "outputs": [
        {
          "name": "",
          "type": "uint256"
        },
        {
          "name": "",
          "type": "uint256"
        }
      ],
      "payable": false,
      "stateMutability": "view",
      "type": "function"
    },
    {
      "constant": false,
      "inputs": [
        {
          "name": "_c2",
          "type": "uint8"
        },
        {
          "name": "_gameName",
          "type": "string"
        }
      ],
      "name": "play",
      "outputs": [],
      "payable": true,
      "stateMutability": "payable",
      "type": "function"
    },
    {
      "constant": false,
      "inputs": [
        {
          "name": "_gameName",
          "type": "string"
        },
        {
          "name": "_c1",
          "type": "uint8"
        },
        {
          "name": "_salt",
          "type": "uint256"
        }
      ],
      "name": "solve",
      "outputs": [],
      "payable": false,
      "stateMutability": "nonpayable",
      "type": "function"
    },
    {
      "constant": true,
      "inputs": [],
      "name": "playersLen",
      "outputs": [
        {
          "name": "",
          "type": "uint256"
        }
      ],
      "payable": false,
      "stateMutability": "view",
      "type": "function"
    },
    {
      "constant": true,
      "inputs": [
        {
          "name": "_gameName",
          "type": "string"
        }
      ],
      "name": "getGameData",
      "outputs": [
        {
          "name": "",
          "type": "string"
        },
        {
          "name": "",
          "type": "address"
        },
        {
          "name": "",
          "type": "string"
        },
        {
          "name": "",
          "type": "address"
        },
        {
          "name": "",
          "type": "bool"
        }
      ],
      "payable": false,
      "stateMutability": "view",
      "type": "function"
    },
    {
      "constant": true,
      "inputs": [
        {
          "name": "_index",
          "type": "uint256"
        }
      ],
      "name": "getPlayerNumber",
      "outputs": [
        {
          "name": "",
          "type": "string"
        },
        {
          "name": "",
          "type": "address"
        }
      ],
      "payable": false,
      "stateMutability": "view",
      "type": "function"
    },
    {
      "constant": false,
      "inputs": [
        {
          "name": "_gameName",
          "type": "string"
        }
      ],
      "name": "j1Timeout",
      "outputs": [],
      "payable": false,
      "stateMutability": "nonpayable",
      "type": "function"
    },
    {
      "constant": false,
      "inputs": [
        {
          "name": "_gameName",
          "type": "string"
        }
      ],
      "name": "j2Timeout",
      "outputs": [],
      "payable": false,
      "stateMutability": "nonpayable",
      "type": "function"
    },
    {
      "constant": false,
      "inputs": [
        {
          "name": "_name",
          "type": "string"
        }
      ],
      "name": "createPlayer",
      "outputs": [],
      "payable": false,
      "stateMutability": "nonpayable",
      "type": "function"
    },
    {
      "constant": true,
      "inputs": [
        {
          "name": "_name",
          "type": "string"
        }
      ],
      "name": "isGame",
      "outputs": [
        {
          "name": "",
          "type": "bool"
        }
      ],
      "payable": false,
      "stateMutability": "view",
      "type": "function"
    },
    {
      "anonymous": false,
      "inputs": [
        {
          "indexed": true,
          "name": "owner",
          "type": "address"
        },
        {
          "indexed": false,
          "name": "name",
          "type": "string"
        },
        {
          "indexed": false,
          "name": "index",
          "type": "uint256"
        }
      ],
      "name": "NewPlayer",
      "type": "event"
    },
    {
      "anonymous": false,
      "inputs": [
        {
          "indexed": true,
          "name": "player1",
          "type": "address"
        },
        {
          "indexed": true,
          "name": "player2",
          "type": "address"
        },
        {
          "indexed": false,
          "name": "gameName",
          "type": "string"
        }
      ],
      "name": "NewGame",
      "type": "event"
    },
    {
      "anonymous": false,
      "inputs": [
        {
          "indexed": true,
          "name": "player1",
          "type": "address"
        },
        {
          "indexed": true,
          "name": "player2",
          "type": "address"
        },
        {
          "indexed": false,
          "name": "gameName",
          "type": "string"
        }
      ],
      "name": "SecondPlayerMoved",
      "type": "event"
    },
    {
      "anonymous": false,
      "inputs": [
        {
          "indexed": true,
          "name": "player1",
          "type": "address"
        },
        {
          "indexed": true,
          "name": "player2",
          "type": "address"
        },
        {
          "indexed": false,
          "name": "gameName",
          "type": "string"
        },
        {
          "indexed": true,
          "name": "winner",
          "type": "address"
        }
      ],
      "name": "FirstPlayerRevealed",
      "type": "event"
    },
    {
      "anonymous": false,
      "inputs": [
        {
          "indexed": true,
          "name": "player1",
          "type": "address"
        },
        {
          "indexed": true,
          "name": "player2",
          "type": "address"
        },
        {
          "indexed": false,
          "name": "gameName",
          "type": "string"
        }
      ],
      "name": "J1Timeout",
      "type": "event"
    },
    {
      "anonymous": false,
      "inputs": [
        {
          "indexed": true,
          "name": "player1",
          "type": "address"
        },
        {
          "indexed": true,
          "name": "player2",
          "type": "address"
        },
        {
          "indexed": false,
          "name": "gameName",
          "type": "string"
        }
      ],
      "name": "J2Timeout",
      "type": "event"
    }
  ],
  "bytecode": "0x608060405234801561001057600080fd5b50614279806100206000396000f3006080604052600436106100c15763ffffffff60e060020a60003504166309c95e1081146100c65780631f17a8f3146100fb57806327dc479f146101225780632857f831146101885780633b8a0e4a146101e15780635053b62e1461033a57806351e74b0d146103ac5780635fac1b84146104005780636523e2f11461046457806399f0139b146104795780639fce6fb5146105ed578063a9f4b50f14610696578063ae3b6d92146106ef578063b586a74014610748578063c0832880146107a1575b600080fd5b3480156100d257600080fd5b506100e7600160a060020a03600435166107fa565b604080519115158252519081900360200190f35b34801561010757600080fd5b5061011061082a565b60408051918252519081900360200190f35b6040805160206004803580820135601f81018490048402850184019095528484526101869436949293602493928401919081908401838280828437509497505050833560ff169450505060208201359160400135600160a060020a03169050610830565b005b34801561019457600080fd5b506040805160206004803580820135601f8101849004840285018401909552848452610110943694929360249392840191908190840183828082843750949750610f049650505050505050565b3480156101ed57600080fd5b506101f6610f19565b60405180806020018060200180602001848103845287818151815260200191508051906020019080838360005b8381101561023b578181015183820152602001610223565b50505050905090810190601f1680156102685780820380516001836020036101000a031916815260200191505b50848103835286518152865160209182019188019080838360005b8381101561029b578181015183820152602001610283565b50505050905090810190601f1680156102c85780820380516001836020036101000a031916815260200191505b50848103825285518152855160209182019187019080838360005b838110156102fb5781810151838201526020016102e3565b50505050905090810190601f1680156103285780820380516001836020036101000a031916815260200191505b50965050505050505060405180910390f35b34801561034657600080fd5b506040805160206004803580820135601f8101849004840285018401909552848452610393943694929360249392840191908190840183828082843750949750610f4c9650505050505050565b6040805192835260208301919091528051918290030190f35b60408051602060046024803582810135601f810185900485028601850190965285855261018695833560ff169536956044949193909101919081908401838280828437509497506110589650505050505050565b34801561040c57600080fd5b506040805160206004803580820135601f81018490048402850184019095528484526101869436949293602493928401919081908401838280828437509497505050833560ff169450505060209091013590506112cc565b34801561047057600080fd5b50610110611783565b34801561048557600080fd5b506040805160206004803580820135601f81018490048402850184019095528484526104d29436949293602493928401919081908401838280828437509497506117899650505050505050565b604051808060200186600160a060020a0316600160a060020a031681526020018060200185600160a060020a0316600160a060020a0316815260200184151515158152602001838103835288818151815260200191508051906020019080838360005b8381101561054d578181015183820152602001610535565b50505050905090810190601f16801561057a5780820380516001836020036101000a031916815260200191505b50838103825286518152865160209182019188019080838360005b838110156105ad578181015183820152602001610595565b50505050905090810190601f1680156105da5780820380516001836020036101000a031916815260200191505b5097505050505050505060405180910390f35b3480156105f957600080fd5b506106056004356117ed565b604051808060200183600160a060020a0316600160a060020a03168152602001828103825284818151815260200191508051906020019080838360005b8381101561065a578181015183820152602001610642565b50505050905090810190601f1680156106875780820380516001836020036101000a031916815260200191505b50935050505060405180910390f35b3480156106a257600080fd5b506040805160206004803580820135601f810184900484028501840190955284845261018694369492936024939284019190819084018382808284375094975061194f9650505050505050565b3480156106fb57600080fd5b506040805160206004803580820135601f8101849004840285018401909552848452610186943694929360249392840191908190840183828082843750949750611bce9650505050505050565b34801561075457600080fd5b506040805160206004803580820135601f8101849004840285018401909552848452610186943694929360249392840191908190840183828082843750949750611e079650505050505050565b3480156107ad57600080fd5b506040805160206004803580820135601f81018490048402850184019095528484526100e79436949293602493928401919081908401838280828437509497506120cf9650505050505050565b600160a060020a038116600090815260208190526040812054151561082157506000610825565b5060015b919050565b603e5481565b61083861346e565b61084061346e565b60008060008060606006603e541015156108ca576040805160e560020a62461bcd02815260206004820152602f60248201527f546f6f206d616e79206f6e676f696e672067616d65732e20506c65617365206360448201527f6f6d65206261636b206c61746572210000000000000000000000000000000000606482015290519081900360840190fd5b6108d3336107fa565b1515610929576040805160e560020a62461bcd02815260206004820152601560248201527f506c61796572206e6f7420726567697374657265640000000000000000000000604482015290519081900360640190fd5b610932886107fa565b1515610988576040805160e560020a62461bcd02815260206004820152601560248201527f506c61796572206e6f7420726567697374657265640000000000000000000000604482015290519081900360640190fd5b6000341161099557600080fd5b600060ff8b16116109a557600080fd5b6109ae336120fd565b965060038760800151101515610a34576040805160e560020a62461bcd02815260206004820152603560248201527f506c6179657220686173207265616368656420686973206d6178696d756d206e60448201527f756d626572206f66206163746976652067616d65730000000000000000000000606482015290519081900360840190fd5b610a3d886120fd565b955060038660800151101515610ac3576040805160e560020a62461bcd02815260206004820152603560248201527f506c6179657220686173207265616368656420686973206d6178696d756d206e60448201527f756d626572206f66206163746976652067616d65730000000000000000000000606482015290519081900360840190fd5b85519450610acf6134a2565b604051809103906000f080158015610aeb573d6000803e3d6000fd5b50935083600160a060020a03166367ef4c138b8b6040518363ffffffff1660e060020a028152600401808360ff1660ff16815260200182815260200192505050602060405180830381600087803b158015610b4557600080fd5b505af1158015610b59573d6000803e3d6000fd5b505050506040513d6020811015610b6f57600080fd5b50518751604080517ffe1f6a0b00000000000000000000000000000000000000000000000000000000815260048101849052600160a060020a038981166024830152915193965091169163fe1f6a0b916044808201926020929091908290030181600087803b158015610be157600080fd5b505af1158015610bf5573d6000803e3d6000fd5b505050506040513d6020811015610c0b57600080fd5b50519150610c188b61232e565b905060a06040519081016040528083600160a060020a0316815260200182815260200133600160a060020a0316815260200189600160a060020a0316815260200134815250601f603e54600681101515610c6e57fe5b8251600591909102919091018054600160a060020a031916600160a060020a039092169190911781556020808301518051610caf92600185019201906134b1565b506040820151600282018054600160a060020a03928316600160a060020a0319918216179091556060840151600384018054919093169116179055608090910151600490910155603e80546001908101918290556000610d0e8461247b565b815260208082019290925260409081016000908120939093553383529082905290205481906003906000190160048110610d4457fe5b600702016003018860800151600381101515610d5c57fe5b019080519060200190610d709291906134b1565b50600160a060020a03881660009081526020819052604090205481906003906000190160048110610d9d57fe5b600702016003018760800151600381101515610db557fe5b019080519060200190610dc99291906134b1565b506080870151336000908152602081905260409020546001909101906003906000190160048110610df657fe5b60070201600601819055508560800151600101600360016000808c600160a060020a0316600160a060020a031681526020019081526020016000205403600481101515610e3f57fe5b600702016006018190555087600160a060020a031633600160a060020a03167f51d92102a2024fe7cc6a6a9f1c111a459e679a12ea42b52cd316e0831d9a8020836040518080602001828103825283818151815260200191508051906020019080838360005b83811015610ebd578181015183820152602001610ea5565b50505050905090810190601f168015610eea5780820380516001836020036101000a031916815260200191505b509250505060405180910390a35050505050505050505050565b6000610f0f82612560565b6080015192915050565b6060806060610f2661352f565b610f2f336120fd565b606001518051602082015160409092015190969195509350915050565b6000806000610f5a846126de565b905080600160a060020a03166389f71d536040518163ffffffff1660e060020a028152600401602060405180830381600087803b158015610f9a57600080fd5b505af1158015610fae573d6000803e3d6000fd5b505050506040513d6020811015610fc457600080fd5b5051604080517ff56f48f20000000000000000000000000000000000000000000000000000000081529051600160a060020a0384169163f56f48f29160048083019260209291908290030181600087803b15801561102157600080fd5b505af1158015611035573d6000803e3d6000fd5b505050506040513d602081101561104b57600080fd5b5051909350915050915091565b611060613557565b61106861346e565b600080611074856120cf565b15156110ca576040805160e560020a62461bcd02815260206004820152601360248201527f47616d6520646f65736e27742065786973742100000000000000000000000000604482015290519081900360640190fd5b6110d385612560565b93506110e06002866126f0565b6020810151909350600160a060020a0316331461116d576040805160e560020a62461bcd02815260206004820152603860248201527f52657175657374696e6720706c61796572206973206e6f74207468652073656360448201527f6f6e6420706c61796572206f6620746869732067616d65210000000000000000606482015290519081900360840190fd5b825184516040517fbca7437b000000000000000000000000000000000000000000000000000000008152600160a060020a038281166004830190815293955085169263bca7437b92918a91906024018260058111156111c857fe5b60ff16815260200192505050600060405180830381600087803b1580156111ee57600080fd5b505af1158015611202573d6000803e3d6000fd5b505050506112116001866126f0565b60200151905033600160a060020a031681600160a060020a03167f7570938286d9f6c0999800d0b2f89e02149ff3872cd10eb5836c99268035c1b0876040518080602001828103825283818151815260200191508051906020019080838360005b8381101561128a578181015183820152602001611272565b50505050905090810190601f1680156112b75780820380516001836020036101000a031916815260200191505b509250505060405180910390a3505050505050565b60006112d661346e565b60008060008060008060006112ea8c6126de565b98506112f760018d6126f0565b6020810151909850600160a060020a03163314611384576040805160e560020a62461bcd02815260206004820152603760248201527f52657175657374696e6720706c61796572206973206e6f74207468652066697260448201527f737420706c61796572206f6620746869732067616d6521000000000000000000606482015290519081900360840190fd5b61138d8c612560565b6080015196508760000151955085600160a060020a031663fd0b8e958a8d8d6040518463ffffffff1660e060020a0281526004018084600160a060020a0316600160a060020a031681526020018360058111156113e657fe5b60ff1681526020018281526020019350505050600060405180830381600087803b15801561141357600080fd5b505af1158015611427573d6000803e3d6000fd5b5050505061143660028d6126f0565b60200151945088600160a060020a03166348e257cb6040518163ffffffff1660e060020a028152600401602060405180830381600087803b15801561147a57600080fd5b505af115801561148e573d6000803e3d6000fd5b505050506040513d60208110156114a457600080fd5b50516040517f0c4395b9000000000000000000000000000000000000000000000000000000008152909450600160a060020a038a1690630c4395b9908d908790600401808360058111156114f457fe5b60ff16815260200182600581111561150857fe5b60ff16815260200192505050602060405180830381600087803b15801561152e57600080fd5b505af1158015611542573d6000803e3d6000fd5b505050506040513d602081101561155857600080fd5b50516040517f0c4395b9000000000000000000000000000000000000000000000000000000008152909350600160a060020a038a1690630c4395b99086908e90600401808360058111156115a857fe5b60ff1681526020018260058111156115bc57fe5b60ff16815260200192505050602060405180830381600087803b1580156115e257600080fd5b505af11580156115f6573d6000803e3d6000fd5b505050506040513d602081101561160c57600080fd5b50519150821561163d5760405133906002890280156108fc02916000818181858888f19350505050503390506116b5565b811561167357604051600160a060020a038616906002890280156108fc02916000818181858888f19350505050508490506116b5565b604051339088156108fc029089906000818181858888f15050604051600160a060020a03891693508a156108fc0292508a91506000818181858888f150505050505b6116be8c61295f565b80600160a060020a031685600160a060020a031633600160a060020a03167f3731533340919cfa7cbd6d0561bcb6824cf3b12bb3fb490c8d3bae4b508954358f6040518080602001828103825283818151815260200191508051906020019080838360005b8381101561173b578181015183820152602001611723565b50505050905090810190601f1680156117685780820380516001836020036101000a031916815260200191505b509250505060405180910390a4505050505050505050505050565b603d5481565b60606000606060008061179a61346e565b6117a261346e565b6117ad6001896126f0565b91506117ba6002896126f0565b905081604001518260200151826040015183602001516117d98c6131d6565b939c929b5090995097509095509350505050565b60606000826000111580156118035750603d5483105b151561187f576040805160e560020a62461bcd02815260206004820152602560248201527f42616420726571756573742120496e646578206f7574206f6620626f756e646160448201527f726965732e000000000000000000000000000000000000000000000000000000606482015290519081900360840190fd5b6003836004811061188c57fe5b600702016002016003846004811015156118a257fe5b600702016001908101548254604080516020600261010096851615969096026000190190931694909404601f8101839004830285018301909152808452600160a060020a039092169291849183018282801561193f5780601f106119145761010080835404028352916020019161193f565b820191906000526020600020905b81548152906001019060200180831161192257829003601f168201915b5050505050915091509150915091565b600061195961346e565b600080600080611968876126de565b95506119756002886126f0565b6020810151909550600160a060020a03163314611a02576040805160e560020a62461bcd02815260206004820152603860248201527f52657175657374696e6720706c61796572206973206e6f74207468652073656360448201527f6f6e6420706c61796572206f6620746869732067616d65210000000000000000606482015290519081900360840190fd5b611a0b87612560565b6080015193508460000151925082600160a060020a031663966abba7876040518263ffffffff1660e060020a0281526004018082600160a060020a0316600160a060020a03168152602001915050600060405180830381600087803b158015611a7357600080fd5b505af1158015611a87573d6000803e3d6000fd5b5050506020860151604051909350600160a060020a03841691506002860280156108fc02916000818181858888f1935050505050611ac66001886126f0565b602001519050611ad58761295f565b600160a060020a0381166000908152602081905260409020546003906000190160048110611aff57fe5b600702016006015460001415611b1857611b1881613263565b81600160a060020a031681600160a060020a03167fead18f13f24452b7a4852893f3cefec7106355b1e992462a8f90803d4898dda8896040518080602001828103825283818151815260200191508051906020019080838360005b83811015611b8b578181015183820152602001611b73565b50505050905090810190601f168015611bb85780820380516001836020036101000a031916815260200191505b509250505060405180910390a350505050505050565b6000611bd861346e565b600080600080611be7876126de565b9550611bf46001886126f0565b6020810151909550600160a060020a03163314611c81576040805160e560020a62461bcd02815260206004820152603760248201527f52657175657374696e6720706c61796572206973206e6f74207468652066697260448201527f737420706c61796572206f6620746869732067616d6521000000000000000000606482015290519081900360840190fd5b611c8a87612560565b6080015193508460000151925082600160a060020a031663ae4800ff876040518263ffffffff1660e060020a0281526004018082600160a060020a0316600160a060020a03168152602001915050600060405180830381600087803b158015611cf257600080fd5b505af1158015611d06573d6000803e3d6000fd5b5050506020860151604051909350600160a060020a038416915085156108fc029086906000818181858888f1935050505050611d436002886126f0565b602001519050611d528761295f565b600160a060020a0381166000908152602081905260409020546003906000190160048110611d7c57fe5b600702016006015460001415611d9557611d9581613263565b80600160a060020a031633600160a060020a03167f8e9c0f891fe08a324ebb4d8a8786825b21104fe88169db8a1efd5a8662df978a8960405180806020018281038252838181518152602001915080519060200190808383600083811015611b8b578181015183820152602001611b73565b611e0f61352f565b603d54600411611e8f576040805160e560020a62461bcd02815260206004820152603460248201527f546f6f206d616e79207265676973746572656420706c61796572732e20506c6560448201527f61736520636f6d65206261636b206c6174657221000000000000000000000000606482015290519081900360840190fd5b611e98336107fa565b15611eed576040805160e560020a62461bcd02815260206004820152601960248201527f506c6179657220616c7265616479207265676973746572656400000000000000604482015290519081900360640190fd5b50604080516080810182526000606082018181528252825160208181018552828252808401919091528351908101845290815281830152815160a081019092529080611f37613586565b604051809103906000f080158015611f53573d6000803e3d6000fd5b50600160a060020a0316815233602082015260408101849052606081018390526000608090910152603d5460039060048110611f8b57fe5b8251600791909102919091018054600160a060020a0319908116600160a060020a039384161782556020808501516001840180549093169416939093179055604083015180519192611fe5926002850192909101906134b1565b506060820151611ffb9060038084019190613596565b5060809190910151600690910155603d805460010190819055336000818152602081815260408083208590558051808301869052818152875191810191909152865193947f5ca95187458a3a347baad567891df2db769ad6c7e1a06e416d9132abd658cbee94889491938392606084019291870191908190849084905b83811015612090578181015183820152602001612078565b50505050905090810190601f1680156120bd5780820380516001836020036101000a031916815260200191505b50935050505060405180910390a25050565b6000600160006120de8461247b565b8152602081019190915260400160002054151561082157506000610825565b61210561346e565b61210e826107fa565b1515612164576040805160e560020a62461bcd02815260206004820152601560248201527f506c6179657220646f65736e2774206578697374210000000000000000000000604482015290519081900360640190fd5b600160a060020a038216600090815260208190526040902054600390600019016004811061218e57fe5b6040805160a081018252600792909202929092018054600160a060020a0390811683526001808301549091166020808501919091526002808401805487516101009582161595909502600019011691909104601f810183900483028401830187528084529495939493860193909183018282801561224d5780601f106122225761010080835404028352916020019161224d565b820191906000526020600020905b81548152906001019060200180831161223057829003601f168201915b5050505050815260200160038201600380602002604051908101604052809291906000905b8282101561231557838201805460408051602060026001851615610100026000190190941693909304601f810184900484028201840190925281815292918301828280156123015780601f106122d657610100808354040283529160200191612301565b820191906000526020600020905b8154815290600101906020018083116122e457829003601f168201915b505050505081526020019060010190612272565b5050505081526020016006820154815250509050919050565b60608161233a816120cf565b156123d157826040516020018082805190602001908083835b602083106123725780518252601f199092019160209182019101612353565b6001836020036101000a038019825116818451168082178552505050505050905001807f2d7632000000000000000000000000000000000000000000000000000000000081525060030191505060405160208183030381529060405290505b6123da816120cf565b1561247557806040516020018082805190602001908083835b602083106124125780518252601f1990920191602091820191016123f3565b6001836020036101000a038019825116818451168082178552505050505050905001807f2e3100000000000000000000000000000000000000000000000000000000000081525060020191505060405160208183030381529060405290506123d1565b92915050565b6000816040516020018080602001828103825283818151815260200191508051906020019080838360005b838110156124be5781810151838201526020016124a6565b50505050905090810190601f1680156124eb5780820380516001836020036101000a031916815260200191505b50925050506040516020818303038152906040526040518082805190602001908083835b6020831061252e5780518252601f19909201916020918201910161250f565b5181516020939093036101000a6000190180199091169216919091179052604051920182900390912095945050505050565b612568613557565b612571826120cf565b15156125c7576040805160e560020a62461bcd02815260206004820152601360248201527f47616d6520646f65736e27742065786973742100000000000000000000000000604482015290519081900360640190fd5b601f60018060006125d78661247b565b815260208101919091526040016000205403600681106125f357fe5b6040805160a081018252600592909202929092018054600160a060020a031682526001808201805485516020600261010095841615959095026000190190921693909304601f81018290048202840182019096528583529394929380860193908301828280156126a45780601f10612679576101008083540402835291602001916126a4565b820191906000526020600020905b81548152906001019060200180831161268757829003601f168201915b50505091835250506002820154600160a060020a039081166020830152600383015416604082015260049091015460609091015292915050565b60006126e982612560565b5192915050565b6126f861346e565b612700613557565b60008460ff166001148061271757508460ff166002145b151561276d576040805160e560020a62461bcd02815260206004820152600c60248201527f4261642072657175657374210000000000000000000000000000000000000000604482015290519081900360640190fd5b61277684612560565b9150816040015190508460ff1660021415612792575060608101515b600160a060020a03811660009081526020819052604090205460039060001901600481106127bc57fe5b6040805160a081018252600792909202929092018054600160a060020a0390811683526001808301549091166020808501919091526002808401805487516101009582161595909502600019011691909104601f810183900483028401830187528084529495939493860193909183018282801561287b5780601f106128505761010080835404028352916020019161287b565b820191906000526020600020905b81548152906001019060200180831161285e57829003601f168201915b5050505050815260200160038201600380602002604051908101604052809291906000905b8282101561294357838201805460408051602060026001851615610100026000190190941693909304601f8101849004840282018401909252818152929183018282801561292f5780601f106129045761010080835404028352916020019161292f565b820191906000526020600020905b81548152906001019060200180831161291257829003601f168201915b5050505050815260200190600101906128a0565b5050505081526020016006820154815250509250505092915050565b6000806000806000806129718761247b565b600081815260016020526040902054909650601f90600019016006811061299457fe5b6005020160020154600160a060020a031660008181526020819052604090205490955060019060039060001901600481106129cb57fe5b6007020160060154036003600160008089600160a060020a0316600160a060020a031681526020019081526020016000205403600481101515612a0a57fe5b6007020160060155600160a060020a0385166000908152602081905260409020546003906000190160048110612a3c57fe5b600702016006015493508560001916612b27600360016000808a600160a060020a0316600160a060020a031681526020019081526020016000205403600481101515612a8457fe5b6007020160030186600381101515612a9857fe5b01805460408051602060026001851615610100026000190190941693909304601f81018490048402820184019092528181529291830182828015612b1d5780601f10612af257610100808354040283529160200191612b1d565b820191906000526020600020905b815481529060010190602001808311612b0057829003601f168201915b505050505061247b565b14612c7957600160a060020a0385166000908152602081905260409020548690612b73906003906000190160048110612b5c57fe5b6007020160030160018703600381101515612a9857fe5b1415612b8457600184039250612bd8565b600160a060020a0385166000908152602081905260409020548690612bcb906003906000190160048110612bb457fe5b6007020160030160028703600381101515612a9857fe5b1415612bd8576002840392505b600160a060020a0385166000908152602081905260409020546003906000190160048110612c0257fe5b6007020160030184600381101515612c1657fe5b600160a060020a0387166000908152602081905260409020549101906003906000190160048110612c4357fe5b6007020160030184600381101515612c5757fe5b019080546001816001161561010002031660029004612c779291906135e2565b505b60408051602081810183526000808352600160a060020a03891681529081905291909120546003906000190160048110612caf57fe5b60070201600301600360016000808a600160a060020a0316600160a060020a031681526020019081526020016000205403600481101515612cec57fe5b6007020160060154600381101515612d0057fe5b019080519060200190612d149291906134b1565b50600086815260016020526040902054601f906000190160068110612d3557fe5b60050201600390810154600160a060020a0316600081815260208190526040902054909350600191906000190160048110612d6c57fe5b6007020160060154036003600160008086600160a060020a0316600160a060020a031681526020019081526020016000205403600481101515612dab57fe5b6007020160060155600160a060020a0382166000908152602081905260409020546003906000190160048110612ddd57fe5b600702016006015493508560001916612e256003600160008087600160a060020a0316600160a060020a031681526020019081526020016000205403600481101515612a8457fe5b14612f4957600160a060020a0382166000908152602081905260409020548690612e5a906003906000190160048110612b5c57fe5b1415612e6b57600184039250612ea8565b600160a060020a0382166000908152602081905260409020548690612e9b906003906000190160048110612bb457fe5b1415612ea8576002840392505b600160a060020a0382166000908152602081905260409020546003906000190160048110612ed257fe5b6007020160030184600381101515612ee657fe5b600160a060020a0384166000908152602081905260409020549101906003906000190160048110612f1357fe5b6007020160030184600381101515612f2757fe5b019080546001816001161561010002031660029004612f479291906135e2565b505b60408051602081810183526000808352600160a060020a03861681529081905291909120546003906000190160048110612f7f57fe5b600702016003016003600160008087600160a060020a0316600160a060020a031681526020019081526020016000205403600481101515612fbc57fe5b6007020160060154600381101515612fd057fe5b019080519060200190612fe49291906134b1565b50506000858152600160205260408120546000190190811061315457603e54601f90600019016006811061301457fe5b60050201601f826006811061302557fe5b8254600591909102919091018054600160a060020a031916600160a060020a0390921691909117815560018083018054613076928085019291600260001992821615610100029290920116046135e2565b506002828101549082018054600160a060020a03928316600160a060020a03199182161790915560038085015490840180549190931691161790556004918201549101556001818101906000613142601f85600681106130d257fe5b600502016001018054600181600116156101000203166002900480601f016020809104026020016040519081016040528092919081815260200182805460018160011615610100020316600290048015612b1d5780601f10612af257610100808354040283529160200191612b1d565b81526020810191909152604001600020555b603e54601f90600019016006811061316857fe5b600502018054600160a060020a031916815560006131896001830182613657565b50600281018054600160a060020a0319908116909155600382018054909116905560006004909101819055603e805460001901905595865250506001602052505060408220919091555050565b6000806131e2836126de565b9050600081600160a060020a03166348e257cb6040518163ffffffff1660e060020a028152600401602060405180830381600087803b15801561322457600080fd5b505af1158015613238573d6000803e3d6000fd5b505050506040513d602081101561324e57600080fd5b5051600581111561325b57fe5b149392505050565b600160a060020a038116600090815260208190526040812054600390600019016004811061328d57fe5b600702016006015460001415156132ee576040805160e560020a62461bcd02815260206004820152601760248201527f506c6179657220686173206163746976652067616d6573000000000000000000604482015290519081900360640190fd5b50600160a060020a038116600090815260208190526040812054600019019081106133ee57603d54600390600019016004811061332757fe5b600702016003826004811061333857fe5b8254600791909102919091018054600160a060020a0319908116600160a060020a039384161782556001808501548184018054909316941693909317905560028084018054929361339a938386019391811615610100026000190116046135e2565b506133ad6003828101908481019061369e565b5060069182015491015560018101600080600384600481106133cb57fe5b6007020160010154600160a060020a031681526020810191909152604001600020555b603d54600390600019016004811061340257fe5b600702018054600160a060020a03199081168255600182018054909116905560006134306002830182613657565b61343e6003830160006136e7565b506000600691909101819055603d8054600019019055600160a060020a0390921682525060208190526040812055565b6040805160e08101825260008082526020820152606091810182905290810161349561352f565b8152602001600081525090565b60405160fe8061375683390190565b828054600181600116156101000203166002900490600052602060002090601f016020900481019282601f106134f257805160ff191683800117855561351f565b8280016001018555821561351f579182015b8281111561351f578251825591602001919060010190613504565b5061352b929150613715565b5090565b6060604051908101604052806003905b606081526020019060019003908161353f5790505090565b6040805160a0810182526000808252606060208301819052928201819052918101829052608081019190915290565b6040516109fa8061385483390190565b82600381019282156135d6579160200282015b828111156135d657825180516135c69184916020909101906134b1565b50916020019190600101906135a9565b5061352b929150613732565b828054600181600116156101000203166002900490600052602060002090601f016020900481019282601f1061361b578054855561351f565b8280016001018555821561351f57600052602060002091601f016020900482015b8281111561351f57825482559160010191906001019061363c565b50805460018160011615610100020316600290046000825580601f1061367d575061369b565b601f01602090049060005260206000209081019061369b9190613715565b50565b82600381019282156135d6579182015b828111156135d657828290805460018160011615610100020316600290046136d79291906135e2565b50916001019190600101906136ae565b5060006136f48282613657565b5060010160006137048282613657565b50613713906001016000613657565b565b61372f91905b8082111561352b576000815560010161371b565b90565b61372f91905b8082111561352b57600061374c8282613657565b5060010161373856006080604052348015600f57600080fd5b5060e08061001e6000396000f300608060405260043610603e5763ffffffff7c010000000000000000000000000000000000000000000000000000000060003504166367ef4c1381146043575b600080fd5b348015604e57600080fd5b50605e60ff600435166024356070565b60408051918252519081900360200190f35b604080517f010000000000000000000000000000000000000000000000000000000000000060ff8516028152600181018390529051908190036021019020929150505600a165627a7a72305820260eb3b8bf43dcdd16dbc3c724258139f0a95cab94f7eedf05604e437c7e3aaf0029608060405234801561001057600080fd5b506109da806100206000396000f3006080604052600436106100535763ffffffff60e060020a600035041663966abba78114610058578063ae4800ff1461007b578063bca7437b1461009c578063fd0b8e95146100b6578063fe1f6a0b146100e0575b600080fd5b34801561006457600080fd5b50610079600160a060020a0360043516610113565b005b34801561008757600080fd5b50610079600160a060020a036004351661016c565b610079600160a060020a036004351660ff602435166101aa565b3480156100c257600080fd5b50610079600160a060020a036004351660ff60243516604435610234565b6100f7600435600160a060020a03602435166102b0565b60408051600160a060020a039092168252519081900360200190f35b80600160a060020a031663c83911426040518163ffffffff1660e060020a028152600401600060405180830381600087803b15801561015157600080fd5b505af1158015610165573d6000803e3d6000fd5b5050505050565b80600160a060020a031663294914a46040518163ffffffff1660e060020a028152600401600060405180830381600087803b15801561015157600080fd5b6040517f53a04b05000000000000000000000000000000000000000000000000000000008152600160a060020a038316906353a04b05908390600401808260058111156101f357fe5b60ff168152602001915050600060405180830381600087803b15801561021857600080fd5b505af115801561022c573d6000803e3d6000fd5b505050505050565b82600160a060020a031663a5ddec7c83836040518363ffffffff1660e060020a0281526004018083600581111561026757fe5b60ff16815260200182815260200192505050600060405180830381600087803b15801561029357600080fd5b505af11580156102a7573d6000803e3d6000fd5b50505050505050565b600082826102bc6102f4565b918252600160a060020a03166020820152604080519182900301906000f0801580156102ec573d6000803e3d6000fd5b509392505050565b6040516106aa806103058339019056006080604081815261012c600555806106aa8339810160405280516020909101513460045560008054600160a060020a0319908116331790915560018054600160a060020a039093169290911691909117905560025542600655610643806100676000396000f3006080604052600436106100b95763ffffffff7c01000000000000000000000000000000000000000000000000000000006000350416630c4395b981146100be578063294914a4146100f35780633a4b66f11461010a57806348e257cb146101315780634d03e3d21461016a57806353a04b051461017f57806380985af91461018d57806389f71d53146101be578063a5ddec7c146101d3578063c37597c6146101f1578063c839114214610206578063f56f48f21461021b575b600080fd5b3480156100ca57600080fd5b506100df60ff60043581169060243516610230565b604080519115158252519081900360200190f35b3480156100ff57600080fd5b506101086102ec565b005b34801561011657600080fd5b5061011f61034c565b60408051918252519081900360200190f35b34801561013d57600080fd5b50610146610352565b6040518082600581111561015657fe5b60ff16815260200191505060405180910390f35b34801561017657600080fd5b5061011f61035b565b61010860ff60043516610361565b34801561019957600080fd5b506101a26103e1565b60408051600160a060020a039092168252519081900360200190f35b3480156101ca57600080fd5b5061011f6103f0565b3480156101df57600080fd5b5061010860ff600435166024356103f6565b3480156101fd57600080fd5b506101a261059c565b34801561021257600080fd5b506101086105ab565b34801561022757600080fd5b5061011f610611565b600081600581111561023e57fe5b83600581111561024a57fe5b1415610258575060006102e6565b600083600581111561026657fe5b1415610274575060006102e6565b600282600581111561028257fe5b81151561028b57fe5b06600284600581111561029a57fe5b8115156102a357fe5b0614156102ca578160058111156102b657fe5b8360058111156102c257fe5b1090506102e6565b8160058111156102d657fe5b8360058111156102e257fe5b1190505b92915050565b600060035460ff1660058111156102ff57fe5b1461030957600080fd5b60055460065401421161031b57600080fd5b60008054600454604051600160a060020a039092169281156108fc029290818181858888f150506000600455505050565b60045481565b60035460ff1681565b60025481565b600060035460ff16600581111561037457fe5b1461037e57600080fd5b600081600581111561038c57fe5b141561039757600080fd5b60045434146103a557600080fd5b600154600160a060020a031633146103bc57600080fd5b6003805482919060ff191660018360058111156103d557fe5b02179055505042600655565b600154600160a060020a031681565b60065481565b600082600581111561040457fe5b141561040f57600080fd5b600060035460ff16600581111561042257fe5b141561042d57600080fd5b600054600160a060020a0316331461044457600080fd5b600254604051839083908083600581111561045b57fe5b60ff167f0100000000000000000000000000000000000000000000000000000000000000028152600101828152602001925050506040518091039020600019161415156104a757600080fd5b6003546104b890839060ff16610230565b156104f35760008054600454604051600160a060020a0390921692600290910280156108fc02929091818181858888f1935050505050610593565b6003546105039060ff1683610230565b1561053d57600154600454604051600160a060020a0390921691600290910280156108fc02916000818181858888f1935050505050610593565b60008054600454604051600160a060020a039092169281156108fc029290818181858888f15050600154600454604051600160a060020a03909216945080156108fc02935091506000818181858888f150505050505b50506000600455565b600054600160a060020a031681565b600060035460ff1660058111156105be57fe5b14156105c957600080fd5b6005546006540142116105db57600080fd5b600154600454604051600160a060020a0390921691600290910280156108fc02916000818181858888f150506000600455505050565b600554815600a165627a7a72305820fe1451ba5e9be5198ea81766ec0c5f32b5ab03b6e47b6ff4c2fd05c1940f4dc60029a165627a7a723058209c86b0e213048dac058a5fd3c0c462328601da019a1a9f021672b01ea55e3c5d0029a165627a7a723058208d7d69a4fa0cd8aeabdd5c007a8276d3fe62ce5eaf14ec44e93633923da338730029",
  "linkReferences": {},
  "deployedLinkReferences": {}
}